{
  "_format": "hh-sol-artifact-1",
  "contractName": "ERC20Mock",
  "sourceName": "contracts/mocks/ERC20Mock.sol",
  "abi": [
    {
      "anonymous": false,
      "inputs": [
        {
          "indexed": true,
          "internalType": "address",
          "name": "owner",
          "type": "address"
        },
        {
          "indexed": true,
          "internalType": "address",
          "name": "spender",
          "type": "address"
        },
        {
          "indexed": false,
          "internalType": "uint256",
          "name": "value",
          "type": "uint256"
        }
      ],
      "name": "Approval",
      "type": "event"
    },
    {
      "anonymous": false,
      "inputs": [
        {
          "indexed": true,
          "internalType": "address",
          "name": "delegator",
          "type": "address"
        },
        {
          "indexed": true,
          "internalType": "address",
          "name": "fromDelegate",
          "type": "address"
        },
        {
          "indexed": true,
          "internalType": "address",
          "name": "toDelegate",
          "type": "address"
        }
      ],
      "name": "DelegateChanged",
      "type": "event"
    },
    {
      "anonymous": false,
      "inputs": [
        {
          "indexed": true,
          "internalType": "address",
          "name": "delegate",
          "type": "address"
        },
        {
          "indexed": false,
          "internalType": "uint256",
          "name": "previousBalance",
          "type": "uint256"
        },
        {
          "indexed": false,
          "internalType": "uint256",
          "name": "newBalance",
          "type": "uint256"
        }
      ],
      "name": "DelegateVotesChanged",
      "type": "event"
    },
    {
      "anonymous": false,
      "inputs": [
        {
          "indexed": true,
          "internalType": "address",
          "name": "from",
          "type": "address"
        },
        {
          "indexed": true,
          "internalType": "address",
          "name": "to",
          "type": "address"
        },
        {
          "indexed": false,
          "internalType": "uint256",
          "name": "value",
          "type": "uint256"
        }
      ],
      "name": "Transfer",
      "type": "event"
    },
    {
      "inputs": [],
      "name": "DOMAIN_SEPARATOR",
      "outputs": [
        {
          "internalType": "bytes32",
          "name": "",
          "type": "bytes32"
        }
      ],
      "stateMutability": "view",
      "type": "function"
    },
    {
      "inputs": [
        {
          "internalType": "address",
          "name": "owner",
          "type": "address"
        },
        {
          "internalType": "address",
          "name": "spender",
          "type": "address"
        }
      ],
      "name": "allowance",
      "outputs": [
        {
          "internalType": "uint256",
          "name": "",
          "type": "uint256"
        }
      ],
      "stateMutability": "view",
      "type": "function"
    },
    {
      "inputs": [
        {
          "internalType": "address",
          "name": "spender",
          "type": "address"
        },
        {
          "internalType": "uint256",
          "name": "amount",
          "type": "uint256"
        }
      ],
      "name": "approve",
      "outputs": [
        {
          "internalType": "bool",
          "name": "",
          "type": "bool"
        }
      ],
      "stateMutability": "nonpayable",
      "type": "function"
    },
    {
      "inputs": [
        {
          "internalType": "address",
          "name": "account",
          "type": "address"
        }
      ],
      "name": "balanceOf",
      "outputs": [
        {
          "internalType": "uint256",
          "name": "",
          "type": "uint256"
        }
      ],
      "stateMutability": "view",
      "type": "function"
    },
    {
      "inputs": [
        {
          "internalType": "address",
          "name": "account",
          "type": "address"
        },
        {
          "internalType": "uint32",
          "name": "pos",
          "type": "uint32"
        }
      ],
      "name": "checkpoints",
      "outputs": [
        {
          "components": [
            {
              "internalType": "uint32",
              "name": "fromBlock",
              "type": "uint32"
            },
            {
              "internalType": "uint224",
              "name": "votes",
              "type": "uint224"
            }
          ],
          "internalType": "struct ERC20Votes.Checkpoint",
          "name": "",
          "type": "tuple"
        }
      ],
      "stateMutability": "view",
      "type": "function"
    },
    {
      "inputs": [],
      "name": "decimals",
      "outputs": [
        {
          "internalType": "uint8",
          "name": "",
          "type": "uint8"
        }
      ],
      "stateMutability": "view",
      "type": "function"
    },
    {
      "inputs": [
        {
          "internalType": "address",
          "name": "spender",
          "type": "address"
        },
        {
          "internalType": "uint256",
          "name": "subtractedValue",
          "type": "uint256"
        }
      ],
      "name": "decreaseAllowance",
      "outputs": [
        {
          "internalType": "bool",
          "name": "",
          "type": "bool"
        }
      ],
      "stateMutability": "nonpayable",
      "type": "function"
    },
    {
      "inputs": [
        {
          "internalType": "address",
          "name": "delegatee",
          "type": "address"
        }
      ],
      "name": "delegate",
      "outputs": [],
      "stateMutability": "nonpayable",
      "type": "function"
    },
    {
      "inputs": [
        {
          "internalType": "address",
          "name": "delegatee",
          "type": "address"
        },
        {
          "internalType": "uint256",
          "name": "nonce",
          "type": "uint256"
        },
        {
          "internalType": "uint256",
          "name": "expiry",
          "type": "uint256"
        },
        {
          "internalType": "uint8",
          "name": "v",
          "type": "uint8"
        },
        {
          "internalType": "bytes32",
          "name": "r",
          "type": "bytes32"
        },
        {
          "internalType": "bytes32",
          "name": "s",
          "type": "bytes32"
        }
      ],
      "name": "delegateBySig",
      "outputs": [],
      "stateMutability": "nonpayable",
      "type": "function"
    },
    {
      "inputs": [
        {
          "internalType": "address",
          "name": "account",
          "type": "address"
        }
      ],
      "name": "delegates",
      "outputs": [
        {
          "internalType": "address",
          "name": "",
          "type": "address"
        }
      ],
      "stateMutability": "view",
      "type": "function"
    },
    {
      "inputs": [
        {
          "internalType": "uint256",
          "name": "blockNumber",
          "type": "uint256"
        }
      ],
      "name": "getPastTotalSupply",
      "outputs": [
        {
          "internalType": "uint256",
          "name": "",
          "type": "uint256"
        }
      ],
      "stateMutability": "view",
      "type": "function"
    },
    {
      "inputs": [
        {
          "internalType": "address",
          "name": "account",
          "type": "address"
        },
        {
          "internalType": "uint256",
          "name": "blockNumber",
          "type": "uint256"
        }
      ],
      "name": "getPastVotes",
      "outputs": [
        {
          "internalType": "uint256",
          "name": "",
          "type": "uint256"
        }
      ],
      "stateMutability": "view",
      "type": "function"
    },
    {
      "inputs": [
        {
          "internalType": "address",
          "name": "account",
          "type": "address"
        }
      ],
      "name": "getVotes",
      "outputs": [
        {
          "internalType": "uint256",
          "name": "",
          "type": "uint256"
        }
      ],
      "stateMutability": "view",
      "type": "function"
    },
    {
      "inputs": [
        {
          "internalType": "address",
          "name": "spender",
          "type": "address"
        },
        {
          "internalType": "uint256",
          "name": "addedValue",
          "type": "uint256"
        }
      ],
      "name": "increaseAllowance",
      "outputs": [
        {
          "internalType": "bool",
          "name": "",
          "type": "bool"
        }
      ],
      "stateMutability": "nonpayable",
      "type": "function"
    },
    {
      "inputs": [
        {
          "internalType": "address",
          "name": "account",
          "type": "address"
        },
        {
          "internalType": "uint256",
          "name": "amount",
          "type": "uint256"
        }
      ],
      "name": "mint",
      "outputs": [],
      "stateMutability": "nonpayable",
      "type": "function"
    },
    {
      "inputs": [],
      "name": "name",
      "outputs": [
        {
          "internalType": "string",
          "name": "",
          "type": "string"
        }
      ],
      "stateMutability": "view",
      "type": "function"
    },
    {
      "inputs": [
        {
          "internalType": "address",
          "name": "owner",
          "type": "address"
        }
      ],
      "name": "nonces",
      "outputs": [
        {
          "internalType": "uint256",
          "name": "",
          "type": "uint256"
        }
      ],
      "stateMutability": "view",
      "type": "function"
    },
    {
      "inputs": [
        {
          "internalType": "address",
          "name": "account",
          "type": "address"
        }
      ],
      "name": "numCheckpoints",
      "outputs": [
        {
          "internalType": "uint32",
          "name": "",
          "type": "uint32"
        }
      ],
      "stateMutability": "view",
      "type": "function"
    },
    {
      "inputs": [
        {
          "internalType": "address",
          "name": "owner",
          "type": "address"
        },
        {
          "internalType": "address",
          "name": "spender",
          "type": "address"
        },
        {
          "internalType": "uint256",
          "name": "value",
          "type": "uint256"
        },
        {
          "internalType": "uint256",
          "name": "deadline",
          "type": "uint256"
        },
        {
          "internalType": "uint8",
          "name": "v",
          "type": "uint8"
        },
        {
          "internalType": "bytes32",
          "name": "r",
          "type": "bytes32"
        },
        {
          "internalType": "bytes32",
          "name": "s",
          "type": "bytes32"
        }
      ],
      "name": "permit",
      "outputs": [],
      "stateMutability": "nonpayable",
      "type": "function"
    },
    {
      "inputs": [],
      "name": "symbol",
      "outputs": [
        {
          "internalType": "string",
          "name": "",
          "type": "string"
        }
      ],
      "stateMutability": "view",
      "type": "function"
    },
    {
      "inputs": [],
      "name": "totalSupply",
      "outputs": [
        {
          "internalType": "uint256",
          "name": "",
          "type": "uint256"
        }
      ],
      "stateMutability": "view",
      "type": "function"
    },
    {
      "inputs": [
        {
          "internalType": "address",
          "name": "to",
          "type": "address"
        },
        {
          "internalType": "uint256",
          "name": "amount",
          "type": "uint256"
        }
      ],
      "name": "transfer",
      "outputs": [
        {
          "internalType": "bool",
          "name": "",
          "type": "bool"
        }
      ],
      "stateMutability": "nonpayable",
      "type": "function"
    },
    {
      "inputs": [
        {
          "internalType": "address",
          "name": "from",
          "type": "address"
        },
        {
          "internalType": "address",
          "name": "to",
          "type": "address"
        },
        {
          "internalType": "uint256",
          "name": "amount",
          "type": "uint256"
        }
      ],
      "name": "transferFrom",
      "outputs": [
        {
          "internalType": "bool",
          "name": "",
          "type": "bool"
        }
      ],
      "stateMutability": "nonpayable",
      "type": "function"
    }
  ],
  "bytecode": "0x6101406040523480156200001257600080fd5b506040518060400160405280600981526020017f4d6f636b45524332300000000000000000000000000000000000000000000000815250806040518060400160405280600181526020017f31000000000000000000000000000000000000000000000000000000000000008152506040518060400160405280600981526020017f4d6f636b455243323000000000000000000000000000000000000000000000008152506040518060400160405280600981526020017f4d6f636b455243323000000000000000000000000000000000000000000000008152508160039081620000fd919062000481565b5080600490816200010f919062000481565b50505060008280519060200120905060008280519060200120905060007f8b73c3c69bb8fe3d512ecc4cf759cc79239f7b179b0ffacaa9a75d522b39400f90508260e081815250508161010081815250504660a081815250506200017b818484620001cb60201b60201c565b608081815250503073ffffffffffffffffffffffffffffffffffffffff1660c08173ffffffffffffffffffffffffffffffffffffffff168152505080610120818152505050505050505062000636565b60008383834630604051602001620001e8959493929190620005d9565b6040516020818303038152906040528051906020012090509392505050565b600081519050919050565b7f4e487b7100000000000000000000000000000000000000000000000000000000600052604160045260246000fd5b7f4e487b7100000000000000000000000000000000000000000000000000000000600052602260045260246000fd5b600060028204905060018216806200028957607f821691505b6020821081036200029f576200029e62000241565b5b50919050565b60008190508160005260206000209050919050565b60006020601f8301049050919050565b600082821b905092915050565b600060088302620003097fffffffffffffffffffffffffffffffffffffffffffffffffffffffffffffffff82620002ca565b620003158683620002ca565b95508019841693508086168417925050509392505050565b6000819050919050565b6000819050919050565b6000620003626200035c62000356846200032d565b62000337565b6200032d565b9050919050565b6000819050919050565b6200037e8362000341565b620003966200038d8262000369565b848454620002d7565b825550505050565b600090565b620003ad6200039e565b620003ba81848462000373565b505050565b5b81811015620003e257620003d6600082620003a3565b600181019050620003c0565b5050565b601f8211156200043157620003fb81620002a5565b6200040684620002ba565b8101602085101562000416578190505b6200042e6200042585620002ba565b830182620003bf565b50505b505050565b600082821c905092915050565b6000620004566000198460080262000436565b1980831691505092915050565b600062000471838362000443565b9150826002028217905092915050565b6200048c8262000207565b67ffffffffffffffff811115620004a857620004a762000212565b5b620004b4825462000270565b620004c1828285620003e6565b600060209050601f831160018114620004f95760008415620004e4578287015190505b620004f0858262000463565b86555062000560565b601f1984166200050986620002a5565b60005b8281101562000533578489015182556001820191506020850194506020810190506200050c565b868310156200055357848901516200054f601f89168262000443565b8355505b6001600288020188555050505b505050505050565b6000819050919050565b6200057d8162000568565b82525050565b6200058e816200032d565b82525050565b600073ffffffffffffffffffffffffffffffffffffffff82169050919050565b6000620005c18262000594565b9050919050565b620005d381620005b4565b82525050565b600060a082019050620005f0600083018862000572565b620005ff602083018762000572565b6200060e604083018662000572565b6200061d606083018562000583565b6200062c6080830184620005c8565b9695505050505050565b60805160a05160c05160e05161010051610120516138c66200068660003960006114be01526000611500015260006114df015260006114140152600061146a0152600061149301526138c66000f3fe608060405234801561001057600080fd5b506004361061014d5760003560e01c80636fcfff45116100c3578063a457c2d71161007c578063a457c2d714610400578063a9059cbb14610430578063c3cda52014610460578063d505accf1461047c578063dd62ed3e14610498578063f1127ed8146104c85761014d565b80636fcfff45146102f257806370a08231146103225780637ecebe00146103525780638e539e8c1461038257806395d89b41146103b25780639ab24eb0146103d05761014d565b80633644e515116101155780633644e5151461020c578063395093511461022a5780633a46b1a81461025a57806340c10f191461028a578063587cde1e146102a65780635c19a95c146102d65761014d565b806306fdde0314610152578063095ea7b31461017057806318160ddd146101a057806323b872dd146101be578063313ce567146101ee575b600080fd5b61015a6104f8565b6040516101679190612519565b60405180910390f35b61018a600480360381019061018591906125d4565b61058a565b604051610197919061262f565b60405180910390f35b6101a86105ad565b6040516101b59190612659565b60405180910390f35b6101d860048036038101906101d39190612674565b6105b7565b6040516101e5919061262f565b60405180910390f35b6101f66105e6565b60405161020391906126e3565b60405180910390f35b6102146105ef565b6040516102219190612717565b60405180910390f35b610244600480360381019061023f91906125d4565b6105fe565b604051610251919061262f565b60405180910390f35b610274600480360381019061026f91906125d4565b610635565b6040516102819190612659565b60405180910390f35b6102a4600480360381019061029f91906125d4565b6106c9565b005b6102c060048036038101906102bb9190612732565b61075b565b6040516102cd919061276e565b60405180910390f35b6102f060048036038101906102eb9190612732565b6107c4565b005b61030c60048036038101906103079190612732565b6107d8565b60405161031991906127a8565b60405180910390f35b61033c60048036038101906103379190612732565b61082c565b6040516103499190612659565b60405180910390f35b61036c60048036038101906103679190612732565b610874565b6040516103799190612659565b60405180910390f35b61039c600480360381019061039791906127c3565b6108c4565b6040516103a99190612659565b60405180910390f35b6103ba61091a565b6040516103c79190612519565b60405180910390f35b6103ea60048036038101906103e59190612732565b6109ac565b6040516103f79190612659565b60405180910390f35b61041a600480360381019061041591906125d4565b610abd565b604051610427919061262f565b60405180910390f35b61044a600480360381019061044591906125d4565b610b34565b604051610457919061262f565b60405180910390f35b61047a60048036038101906104759190612848565b610b57565b005b610496600480360381019061049191906128d5565b610c5b565b005b6104b260048036038101906104ad9190612977565b610d9d565b6040516104bf9190612659565b60405180910390f35b6104e260048036038101906104dd91906129e3565b610e24565b6040516104ef9190612a98565b60405180910390f35b60606003805461050790612ae2565b80601f016020809104026020016040519081016040528092919081815260200182805461053390612ae2565b80156105805780601f1061055557610100808354040283529160200191610580565b820191906000526020600020905b81548152906001019060200180831161056357829003601f168201915b5050505050905090565b600080610595610f34565b90506105a2818585610f3c565b600191505092915050565b6000600254905090565b6000806105c2610f34565b90506105cf858285611105565b6105da858585611191565b60019150509392505050565b60006012905090565b60006105f9611410565b905090565b600080610609610f34565b905061062a81858561061b8589610d9d565b6106259190612b42565b610f3c565b600191505092915050565b6000438210610679576040517f08c379a000000000000000000000000000000000000000000000000000000000815260040161067090612bc2565b60405180910390fd5b6106c1600860008573ffffffffffffffffffffffffffffffffffffffff1673ffffffffffffffffffffffffffffffffffffffff1681526020019081526020016000208361152a565b905092915050565b6106f57fd37cd2b1a54595049910773d828a2d13b4099a43094138bc624e9d2d23a53b0c60001b611636565b6107217f2d92197b6f9bc934390a3338577148417747316667ab2815a970519412bc615f60001b611636565b61074d7f4d56da65d870907c3cd3a04377aa17a1dff8ddbfa8b1b62dfe6fb9b471b26ac960001b611636565b6107578282611639565b5050565b6000600760008373ffffffffffffffffffffffffffffffffffffffff1673ffffffffffffffffffffffffffffffffffffffff16815260200190815260200160002060009054906101000a900473ffffffffffffffffffffffffffffffffffffffff169050919050565b6107d56107cf610f34565b826116cb565b50565b6000610825600860008473ffffffffffffffffffffffffffffffffffffffff1673ffffffffffffffffffffffffffffffffffffffff168152602001908152602001600020805490506117e5565b9050919050565b60008060008373ffffffffffffffffffffffffffffffffffffffff1673ffffffffffffffffffffffffffffffffffffffff168152602001908152602001600020549050919050565b60006108bd600560008473ffffffffffffffffffffffffffffffffffffffff1673ffffffffffffffffffffffffffffffffffffffff168152602001908152602001600020611838565b9050919050565b6000438210610908576040517f08c379a00000000000000000000000000000000000000000000000000000000081526004016108ff90612bc2565b60405180910390fd5b61091360098361152a565b9050919050565b60606004805461092990612ae2565b80601f016020809104026020016040519081016040528092919081815260200182805461095590612ae2565b80156109a25780601f10610977576101008083540402835291602001916109a2565b820191906000526020600020905b81548152906001019060200180831161098557829003601f168201915b5050505050905090565b600080600860008473ffffffffffffffffffffffffffffffffffffffff1673ffffffffffffffffffffffffffffffffffffffff16815260200190815260200160002080549050905060008114610a9457600860008473ffffffffffffffffffffffffffffffffffffffff1673ffffffffffffffffffffffffffffffffffffffff168152602001908152602001600020600182610a489190612be2565b81548110610a5957610a58612c16565b5b9060005260206000200160000160049054906101000a90047bffffffffffffffffffffffffffffffffffffffffffffffffffffffff16610a97565b60005b7bffffffffffffffffffffffffffffffffffffffffffffffffffffffff16915050919050565b600080610ac8610f34565b90506000610ad68286610d9d565b905083811015610b1b576040517f08c379a0000000000000000000000000000000000000000000000000000000008152600401610b1290612cb7565b60405180910390fd5b610b288286868403610f3c565b60019250505092915050565b600080610b3f610f34565b9050610b4c818585611191565b600191505092915050565b83421115610b9a576040517f08c379a0000000000000000000000000000000000000000000000000000000008152600401610b9190612d23565b60405180910390fd5b6000610bfc610bf47fe48329057bfd03d55e49b547132e39cffd9c1820ad7b9d4c5307691425d15adf898989604051602001610bd99493929190612d43565b60405160208183030381529060405280519060200120611846565b858585611860565b9050610c078161188b565b8614610c48576040517f08c379a0000000000000000000000000000000000000000000000000000000008152600401610c3f90612dd4565b60405180910390fd5b610c5281886116cb565b50505050505050565b83421115610c9e576040517f08c379a0000000000000000000000000000000000000000000000000000000008152600401610c9590612e40565b60405180910390fd5b60007f6e71edae12b1b97f4d1f60370fef10105fa2faae0126114a169c64845d6126c9888888610ccd8c61188b565b89604051602001610ce396959493929190612e60565b6040516020818303038152906040528051906020012090506000610d0682611846565b90506000610d1682878787611860565b90508973ffffffffffffffffffffffffffffffffffffffff168173ffffffffffffffffffffffffffffffffffffffff1614610d86576040517f08c379a0000000000000000000000000000000000000000000000000000000008152600401610d7d90612f0d565b60405180910390fd5b610d918a8a8a610f3c565b50505050505050505050565b6000600160008473ffffffffffffffffffffffffffffffffffffffff1673ffffffffffffffffffffffffffffffffffffffff16815260200190815260200160002060008373ffffffffffffffffffffffffffffffffffffffff1673ffffffffffffffffffffffffffffffffffffffff16815260200190815260200160002054905092915050565b610e2c61244b565b600860008473ffffffffffffffffffffffffffffffffffffffff1673ffffffffffffffffffffffffffffffffffffffff1681526020019081526020016000208263ffffffff1681548110610e8357610e82612c16565b5b906000526020600020016040518060400160405290816000820160009054906101000a900463ffffffff1663ffffffff1663ffffffff1681526020016000820160049054906101000a90047bffffffffffffffffffffffffffffffffffffffffffffffffffffffff167bffffffffffffffffffffffffffffffffffffffffffffffffffffffff167bffffffffffffffffffffffffffffffffffffffffffffffffffffffff1681525050905092915050565b600033905090565b600073ffffffffffffffffffffffffffffffffffffffff168373ffffffffffffffffffffffffffffffffffffffff1603610fab576040517f08c379a0000000000000000000000000000000000000000000000000000000008152600401610fa290612f9f565b60405180910390fd5b600073ffffffffffffffffffffffffffffffffffffffff168273ffffffffffffffffffffffffffffffffffffffff160361101a576040517f08c379a000000000000000000000000000000000000000000000000000000000815260040161101190613031565b60405180910390fd5b80600160008573ffffffffffffffffffffffffffffffffffffffff1673ffffffffffffffffffffffffffffffffffffffff16815260200190815260200160002060008473ffffffffffffffffffffffffffffffffffffffff1673ffffffffffffffffffffffffffffffffffffffff168152602001908152602001600020819055508173ffffffffffffffffffffffffffffffffffffffff168373ffffffffffffffffffffffffffffffffffffffff167f8c5be1e5ebec7d5bd14f71427d1e84f3dd0314c0f7b2291e5b200ac8c7c3b925836040516110f89190612659565b60405180910390a3505050565b60006111118484610d9d565b90507fffffffffffffffffffffffffffffffffffffffffffffffffffffffffffffffff811461118b578181101561117d576040517f08c379a00000000000000000000000000000000000000000000000000000000081526004016111749061309d565b60405180910390fd5b61118a8484848403610f3c565b5b50505050565b600073ffffffffffffffffffffffffffffffffffffffff168373ffffffffffffffffffffffffffffffffffffffff1603611200576040517f08c379a00000000000000000000000000000000000000000000000000000000081526004016111f79061312f565b60405180910390fd5b600073ffffffffffffffffffffffffffffffffffffffff168273ffffffffffffffffffffffffffffffffffffffff160361126f576040517f08c379a0000000000000000000000000000000000000000000000000000000008152600401611266906131c1565b60405180910390fd5b61127a8383836118e9565b60008060008573ffffffffffffffffffffffffffffffffffffffff1673ffffffffffffffffffffffffffffffffffffffff16815260200190815260200160002054905081811015611300576040517f08c379a00000000000000000000000000000000000000000000000000000000081526004016112f790613253565b60405180910390fd5b8181036000808673ffffffffffffffffffffffffffffffffffffffff1673ffffffffffffffffffffffffffffffffffffffff16815260200190815260200160002081905550816000808573ffffffffffffffffffffffffffffffffffffffff1673ffffffffffffffffffffffffffffffffffffffff16815260200190815260200160002060008282546113939190612b42565b925050819055508273ffffffffffffffffffffffffffffffffffffffff168473ffffffffffffffffffffffffffffffffffffffff167fddf252ad1be2c89b69c2b068fc378daa952ba7f163c4a11628f55a4df523b3ef846040516113f79190612659565b60405180910390a361140a8484846118ee565b50505050565b60007f000000000000000000000000000000000000000000000000000000000000000073ffffffffffffffffffffffffffffffffffffffff163073ffffffffffffffffffffffffffffffffffffffff1614801561148c57507f000000000000000000000000000000000000000000000000000000000000000046145b156114b9577f00000000000000000000000000000000000000000000000000000000000000009050611527565b6115247f00000000000000000000000000000000000000000000000000000000000000007f00000000000000000000000000000000000000000000000000000000000000007f0000000000000000000000000000000000000000000000000000000000000000611982565b90505b90565b6000808380549050905060005b818110156115a957600061154b82846119bc565b90508486828154811061156157611560612c16565b5b9060005260206000200160000160009054906101000a900463ffffffff1663ffffffff161115611593578092506115a3565b6001816115a09190612b42565b91505b50611537565b6000821461160b57846001836115bf9190612be2565b815481106115d0576115cf612c16565b5b9060005260206000200160000160049054906101000a90047bffffffffffffffffffffffffffffffffffffffffffffffffffffffff1661160e565b60005b7bffffffffffffffffffffffffffffffffffffffffffffffffffffffff169250505092915050565b50565b6116657fea5728ff3df2aa67d813098ac25b6132c0d5157455308c9d0282c755b23f718060001b611636565b6116917f6505e672d20894d390716abf1ee61d6f5213c9bf70424b35e0abd8f27fdcdf8d60001b611636565b6116bd7f35abe17bd8f5d57e3fc3d0cfa9ad2a9ac5ae44e4963b2d644a11558033df027460001b611636565b6116c782826119e2565b5050565b60006116d68361075b565b905060006116e38461082c565b905082600760008673ffffffffffffffffffffffffffffffffffffffff1673ffffffffffffffffffffffffffffffffffffffff16815260200190815260200160002060006101000a81548173ffffffffffffffffffffffffffffffffffffffff021916908373ffffffffffffffffffffffffffffffffffffffff1602179055508273ffffffffffffffffffffffffffffffffffffffff168273ffffffffffffffffffffffffffffffffffffffff168573ffffffffffffffffffffffffffffffffffffffff167f3134e8a2e6d97e929a7e54011ea5485d7d196dd5f0ba4d4ef95803e8e3fc257f60405160405180910390a46117df828483611a6f565b50505050565b600063ffffffff8016821115611830576040517f08c379a0000000000000000000000000000000000000000000000000000000008152600401611827906132e5565b60405180910390fd5b819050919050565b600081600001549050919050565b6000611859611853611410565b83611c68565b9050919050565b600080600061187187878787611c9b565b9150915061187e81611da7565b8192505050949350505050565b600080600560008473ffffffffffffffffffffffffffffffffffffffff1673ffffffffffffffffffffffffffffffffffffffff16815260200190815260200160002090506118d881611838565b91506118e381611f73565b50919050565b505050565b61191a7f2b0f32a13e6207b652e43346db799199ca0a8aa870087cf8d65bea44f2452a7260001b611636565b6119467f68f6e4dd0f08576372b4ddee0ba769d9d4d3bef7c3feaf0fb3620ab08dff164e60001b611636565b6119727fab2a48795ee8a0d156841b739ab3ce9a6aad3f137345b31882cae3058136432860001b611636565b61197d838383611f89565b505050565b6000838383463060405160200161199d959493929190613305565b6040516020818303038152906040528051906020012090509392505050565b600060028284186119cd9190613387565b8284166119da9190612b42565b905092915050565b6119ec8282611fb4565b6119f4612113565b7bffffffffffffffffffffffffffffffffffffffffffffffffffffffff16611a1a6105ad565b1115611a5b576040517f08c379a0000000000000000000000000000000000000000000000000000000008152600401611a529061342a565b60405180910390fd5b611a6960096121378361214d565b50505050565b8173ffffffffffffffffffffffffffffffffffffffff168373ffffffffffffffffffffffffffffffffffffffff1614158015611aab5750600081115b15611c6357600073ffffffffffffffffffffffffffffffffffffffff168373ffffffffffffffffffffffffffffffffffffffff1614611b8957600080611b32600860008773ffffffffffffffffffffffffffffffffffffffff1673ffffffffffffffffffffffffffffffffffffffff1681526020019081526020016000206123c58561214d565b915091508473ffffffffffffffffffffffffffffffffffffffff167fdec2bacdd2f05b59de34da9b523dff8be42e5e38e818c82fdb0bae774387a7248383604051611b7e92919061344a565b60405180910390a250505b600073ffffffffffffffffffffffffffffffffffffffff168273ffffffffffffffffffffffffffffffffffffffff1614611c6257600080611c0b600860008673ffffffffffffffffffffffffffffffffffffffff1673ffffffffffffffffffffffffffffffffffffffff1681526020019081526020016000206121378561214d565b915091508373ffffffffffffffffffffffffffffffffffffffff167fdec2bacdd2f05b59de34da9b523dff8be42e5e38e818c82fdb0bae774387a7248383604051611c5792919061344a565b60405180910390a250505b5b505050565b60008282604051602001611c7d9291906134eb565b60405160208183030381529060405280519060200120905092915050565b6000807f7fffffffffffffffffffffffffffffff5d576e7357a4501ddfe92f46681b20a08360001c1115611cd6576000600391509150611d9e565b601b8560ff1614158015611cee5750601c8560ff1614155b15611d00576000600491509150611d9e565b600060018787878760405160008152602001604052604051611d259493929190613522565b6020604051602081039080840390855afa158015611d47573d6000803e3d6000fd5b505050602060405103519050600073ffffffffffffffffffffffffffffffffffffffff168173ffffffffffffffffffffffffffffffffffffffff1603611d9557600060019250925050611d9e565b80600092509250505b94509492505050565b60006004811115611dbb57611dba613567565b5b816004811115611dce57611dcd613567565b5b0315611f705760016004811115611de857611de7613567565b5b816004811115611dfb57611dfa613567565b5b03611e3b576040517f08c379a0000000000000000000000000000000000000000000000000000000008152600401611e32906135e2565b60405180910390fd5b60026004811115611e4f57611e4e613567565b5b816004811115611e6257611e61613567565b5b03611ea2576040517f08c379a0000000000000000000000000000000000000000000000000000000008152600401611e999061364e565b60405180910390fd5b60036004811115611eb657611eb5613567565b5b816004811115611ec957611ec8613567565b5b03611f09576040517f08c379a0000000000000000000000000000000000000000000000000000000008152600401611f00906136e0565b60405180910390fd5b600480811115611f1c57611f1b613567565b5b816004811115611f2f57611f2e613567565b5b03611f6f576040517f08c379a0000000000000000000000000000000000000000000000000000000008152600401611f6690613772565b60405180910390fd5b5b50565b6001816000016000828254019250508190555050565b611f948383836123db565b611faf611fa08461075b565b611fa98461075b565b83611a6f565b505050565b600073ffffffffffffffffffffffffffffffffffffffff168273ffffffffffffffffffffffffffffffffffffffff1603612023576040517f08c379a000000000000000000000000000000000000000000000000000000000815260040161201a906137de565b60405180910390fd5b61202f600083836118e9565b80600260008282546120419190612b42565b92505081905550806000808473ffffffffffffffffffffffffffffffffffffffff1673ffffffffffffffffffffffffffffffffffffffff16815260200190815260200160002060008282546120969190612b42565b925050819055508173ffffffffffffffffffffffffffffffffffffffff16600073ffffffffffffffffffffffffffffffffffffffff167fddf252ad1be2c89b69c2b068fc378daa952ba7f163c4a11628f55a4df523b3ef836040516120fb9190612659565b60405180910390a361210f600083836118ee565b5050565b60007bffffffffffffffffffffffffffffffffffffffffffffffffffffffff905090565b600081836121459190612b42565b905092915050565b600080600085805490509050600081146121bb578560018261216f9190612be2565b815481106121805761217f612c16565b5b9060005260206000200160000160049054906101000a90047bffffffffffffffffffffffffffffffffffffffffffffffffffffffff166121be565b60005b7bffffffffffffffffffffffffffffffffffffffffffffffffffffffff1692506121ec83858763ffffffff16565b915060008111801561223f575043866001836122089190612be2565b8154811061221957612218612c16565b5b9060005260206000200160000160009054906101000a900463ffffffff1663ffffffff16145b156122cc5761224d826123e0565b8660018361225b9190612be2565b8154811061226c5761226b612c16565b5b9060005260206000200160000160046101000a8154817bffffffffffffffffffffffffffffffffffffffffffffffffffffffff02191690837bffffffffffffffffffffffffffffffffffffffffffffffffffffffff1602179055506123bc565b8560405180604001604052806122e1436117e5565b63ffffffff1681526020016122f5856123e0565b7bffffffffffffffffffffffffffffffffffffffffffffffffffffffff168152509080600181540180825580915050600190039060005260206000200160009091909190915060008201518160000160006101000a81548163ffffffff021916908363ffffffff16021790555060208201518160000160046101000a8154817bffffffffffffffffffffffffffffffffffffffffffffffffffffffff02191690837bffffffffffffffffffffffffffffffffffffffffffffffffffffffff16021790555050505b50935093915050565b600081836123d39190612be2565b905092915050565b505050565b60007bffffffffffffffffffffffffffffffffffffffffffffffffffffffff8016821115612443576040517f08c379a000000000000000000000000000000000000000000000000000000000815260040161243a90613870565b60405180910390fd5b819050919050565b6040518060400160405280600063ffffffff16815260200160007bffffffffffffffffffffffffffffffffffffffffffffffffffffffff1681525090565b600081519050919050565b600082825260208201905092915050565b60005b838110156124c35780820151818401526020810190506124a8565b60008484015250505050565b6000601f19601f8301169050919050565b60006124eb82612489565b6124f58185612494565b93506125058185602086016124a5565b61250e816124cf565b840191505092915050565b6000602082019050818103600083015261253381846124e0565b905092915050565b600080fd5b600073ffffffffffffffffffffffffffffffffffffffff82169050919050565b600061256b82612540565b9050919050565b61257b81612560565b811461258657600080fd5b50565b60008135905061259881612572565b92915050565b6000819050919050565b6125b18161259e565b81146125bc57600080fd5b50565b6000813590506125ce816125a8565b92915050565b600080604083850312156125eb576125ea61253b565b5b60006125f985828601612589565b925050602061260a858286016125bf565b9150509250929050565b60008115159050919050565b61262981612614565b82525050565b60006020820190506126446000830184612620565b92915050565b6126538161259e565b82525050565b600060208201905061266e600083018461264a565b92915050565b60008060006060848603121561268d5761268c61253b565b5b600061269b86828701612589565b93505060206126ac86828701612589565b92505060406126bd868287016125bf565b9150509250925092565b600060ff82169050919050565b6126dd816126c7565b82525050565b60006020820190506126f860008301846126d4565b92915050565b6000819050919050565b612711816126fe565b82525050565b600060208201905061272c6000830184612708565b92915050565b6000602082840312156127485761274761253b565b5b600061275684828501612589565b91505092915050565b61276881612560565b82525050565b6000602082019050612783600083018461275f565b92915050565b600063ffffffff82169050919050565b6127a281612789565b82525050565b60006020820190506127bd6000830184612799565b92915050565b6000602082840312156127d9576127d861253b565b5b60006127e7848285016125bf565b91505092915050565b6127f9816126c7565b811461280457600080fd5b50565b600081359050612816816127f0565b92915050565b612825816126fe565b811461283057600080fd5b50565b6000813590506128428161281c565b92915050565b60008060008060008060c087890312156128655761286461253b565b5b600061287389828a01612589565b965050602061288489828a016125bf565b955050604061289589828a016125bf565b94505060606128a689828a01612807565b93505060806128b789828a01612833565b92505060a06128c889828a01612833565b9150509295509295509295565b600080600080600080600060e0888a0312156128f4576128f361253b565b5b60006129028a828b01612589565b97505060206129138a828b01612589565b96505060406129248a828b016125bf565b95505060606129358a828b016125bf565b94505060806129468a828b01612807565b93505060a06129578a828b01612833565b92505060c06129688a828b01612833565b91505092959891949750929550565b6000806040838503121561298e5761298d61253b565b5b600061299c85828601612589565b92505060206129ad85828601612589565b9150509250929050565b6129c081612789565b81146129cb57600080fd5b50565b6000813590506129dd816129b7565b92915050565b600080604083850312156129fa576129f961253b565b5b6000612a0885828601612589565b9250506020612a19858286016129ce565b9150509250929050565b612a2c81612789565b82525050565b60007bffffffffffffffffffffffffffffffffffffffffffffffffffffffff82169050919050565b612a6381612a32565b82525050565b604082016000820151612a7f6000850182612a23565b506020820151612a926020850182612a5a565b50505050565b6000604082019050612aad6000830184612a69565b92915050565b7f4e487b7100000000000000000000000000000000000000000000000000000000600052602260045260246000fd5b60006002820490506001821680612afa57607f821691505b602082108103612b0d57612b0c612ab3565b5b50919050565b7f4e487b7100000000000000000000000000000000000000000000000000000000600052601160045260246000fd5b6000612b4d8261259e565b9150612b588361259e565b9250828201905080821115612b7057612b6f612b13565b5b92915050565b7f4552433230566f7465733a20626c6f636b206e6f7420796574206d696e656400600082015250565b6000612bac601f83612494565b9150612bb782612b76565b602082019050919050565b60006020820190508181036000830152612bdb81612b9f565b9050919050565b6000612bed8261259e565b9150612bf88361259e565b9250828203905081811115612c1057612c0f612b13565b5b92915050565b7f4e487b7100000000000000000000000000000000000000000000000000000000600052603260045260246000fd5b7f45524332303a2064656372656173656420616c6c6f77616e63652062656c6f7760008201527f207a65726f000000000000000000000000000000000000000000000000000000602082015250565b6000612ca1602583612494565b9150612cac82612c45565b604082019050919050565b60006020820190508181036000830152612cd081612c94565b9050919050565b7f4552433230566f7465733a207369676e61747572652065787069726564000000600082015250565b6000612d0d601d83612494565b9150612d1882612cd7565b602082019050919050565b60006020820190508181036000830152612d3c81612d00565b9050919050565b6000608082019050612d586000830187612708565b612d65602083018661275f565b612d72604083018561264a565b612d7f606083018461264a565b95945050505050565b7f4552433230566f7465733a20696e76616c6964206e6f6e636500000000000000600082015250565b6000612dbe601983612494565b9150612dc982612d88565b602082019050919050565b60006020820190508181036000830152612ded81612db1565b9050919050565b7f45524332305065726d69743a206578706972656420646561646c696e65000000600082015250565b6000612e2a601d83612494565b9150612e3582612df4565b602082019050919050565b60006020820190508181036000830152612e5981612e1d565b9050919050565b600060c082019050612e756000830189612708565b612e82602083018861275f565b612e8f604083018761275f565b612e9c606083018661264a565b612ea9608083018561264a565b612eb660a083018461264a565b979650505050505050565b7f45524332305065726d69743a20696e76616c6964207369676e61747572650000600082015250565b6000612ef7601e83612494565b9150612f0282612ec1565b602082019050919050565b60006020820190508181036000830152612f2681612eea565b9050919050565b7f45524332303a20617070726f76652066726f6d20746865207a65726f2061646460008201527f7265737300000000000000000000000000000000000000000000000000000000602082015250565b6000612f89602483612494565b9150612f9482612f2d565b604082019050919050565b60006020820190508181036000830152612fb881612f7c565b9050919050565b7f45524332303a20617070726f766520746f20746865207a65726f20616464726560008201527f7373000000000000000000000000000000000000000000000000000000000000602082015250565b600061301b602283612494565b915061302682612fbf565b604082019050919050565b6000602082019050818103600083015261304a8161300e565b9050919050565b7f45524332303a20696e73756666696369656e7420616c6c6f77616e6365000000600082015250565b6000613087601d83612494565b915061309282613051565b602082019050919050565b600060208201905081810360008301526130b68161307a565b9050919050565b7f45524332303a207472616e736665722066726f6d20746865207a65726f20616460008201527f6472657373000000000000000000000000000000000000000000000000000000602082015250565b6000613119602583612494565b9150613124826130bd565b604082019050919050565b600060208201905081810360008301526131488161310c565b9050919050565b7f45524332303a207472616e7366657220746f20746865207a65726f206164647260008201527f6573730000000000000000000000000000000000000000000000000000000000602082015250565b60006131ab602383612494565b91506131b68261314f565b604082019050919050565b600060208201905081810360008301526131da8161319e565b9050919050565b7f45524332303a207472616e7366657220616d6f756e742065786365656473206260008201527f616c616e63650000000000000000000000000000000000000000000000000000602082015250565b600061323d602683612494565b9150613248826131e1565b604082019050919050565b6000602082019050818103600083015261326c81613230565b9050919050565b7f53616665436173743a2076616c756520646f65736e27742066697420696e203360008201527f3220626974730000000000000000000000000000000000000000000000000000602082015250565b60006132cf602683612494565b91506132da82613273565b604082019050919050565b600060208201905081810360008301526132fe816132c2565b9050919050565b600060a08201905061331a6000830188612708565b6133276020830187612708565b6133346040830186612708565b613341606083018561264a565b61334e608083018461275f565b9695505050505050565b7f4e487b7100000000000000000000000000000000000000000000000000000000600052601260045260246000fd5b60006133928261259e565b915061339d8361259e565b9250826133ad576133ac613358565b5b828204905092915050565b7f4552433230566f7465733a20746f74616c20737570706c79207269736b73206f60008201527f766572666c6f77696e6720766f74657300000000000000000000000000000000602082015250565b6000613414603083612494565b915061341f826133b8565b604082019050919050565b6000602082019050818103600083015261344381613407565b9050919050565b600060408201905061345f600083018561264a565b61346c602083018461264a565b9392505050565b600081905092915050565b7f1901000000000000000000000000000000000000000000000000000000000000600082015250565b60006134b4600283613473565b91506134bf8261347e565b600282019050919050565b6000819050919050565b6134e56134e0826126fe565b6134ca565b82525050565b60006134f6826134a7565b915061350282856134d4565b60208201915061351282846134d4565b6020820191508190509392505050565b60006080820190506135376000830187612708565b61354460208301866126d4565b6135516040830185612708565b61355e6060830184612708565b95945050505050565b7f4e487b7100000000000000000000000000000000000000000000000000000000600052602160045260246000fd5b7f45434453413a20696e76616c6964207369676e61747572650000000000000000600082015250565b60006135cc601883612494565b91506135d782613596565b602082019050919050565b600060208201905081810360008301526135fb816135bf565b9050919050565b7f45434453413a20696e76616c6964207369676e6174757265206c656e67746800600082015250565b6000613638601f83612494565b915061364382613602565b602082019050919050565b600060208201905081810360008301526136678161362b565b9050919050565b7f45434453413a20696e76616c6964207369676e6174757265202773272076616c60008201527f7565000000000000000000000000000000000000000000000000000000000000602082015250565b60006136ca602283612494565b91506136d58261366e565b604082019050919050565b600060208201905081810360008301526136f9816136bd565b9050919050565b7f45434453413a20696e76616c6964207369676e6174757265202776272076616c60008201527f7565000000000000000000000000000000000000000000000000000000000000602082015250565b600061375c602283612494565b915061376782613700565b604082019050919050565b6000602082019050818103600083015261378b8161374f565b9050919050565b7f45524332303a206d696e7420746f20746865207a65726f206164647265737300600082015250565b60006137c8601f83612494565b91506137d382613792565b602082019050919050565b600060208201905081810360008301526137f7816137bb565b9050919050565b7f53616665436173743a2076616c756520646f65736e27742066697420696e203260008201527f3234206269747300000000000000000000000000000000000000000000000000602082015250565b600061385a602783612494565b9150613865826137fe565b604082019050919050565b600060208201905081810360008301526138898161384d565b905091905056fea26469706673582212205601091d01235c399c14f20ba2c00cd00e1d39845c816cb5dace3ca1a2503dc764736f6c63430008100033",
  "linkReferences": {},
  "deployedLinkReferences": {}
}