{
  "_format": "hh-sol-artifact-1",
  "contractName": "VestingFactory",
  "sourceName": "contracts/VestingFactory.sol",
  "abi": [
    {
      "anonymous": false,
      "inputs": [
        {
          "indexed": true,
          "internalType": "address",
          "name": "owner",
          "type": "address"
        },
        {
          "indexed": true,
          "internalType": "address",
          "name": "approved",
          "type": "address"
        },
        {
          "indexed": true,
          "internalType": "uint256",
          "name": "tokenId",
          "type": "uint256"
        }
      ],
      "name": "Approval",
      "type": "event"
    },
    {
      "anonymous": false,
      "inputs": [
        {
          "indexed": true,
          "internalType": "address",
          "name": "owner",
          "type": "address"
        },
        {
          "indexed": true,
          "internalType": "address",
          "name": "operator",
          "type": "address"
        },
        {
          "indexed": false,
          "internalType": "bool",
          "name": "approved",
          "type": "bool"
        }
      ],
      "name": "ApprovalForAll",
      "type": "event"
    },
    {
      "anonymous": false,
      "inputs": [
        {
          "indexed": true,
          "internalType": "address",
          "name": "from",
          "type": "address"
        },
        {
          "indexed": true,
          "internalType": "address",
          "name": "to",
          "type": "address"
        },
        {
          "indexed": true,
          "internalType": "uint256",
          "name": "tokenId",
          "type": "uint256"
        }
      ],
      "name": "Transfer",
      "type": "event"
    },
    {
      "inputs": [
        {
          "internalType": "address",
          "name": "to",
          "type": "address"
        },
        {
          "internalType": "uint256",
          "name": "tokenId",
          "type": "uint256"
        }
      ],
      "name": "approve",
      "outputs": [],
      "stateMutability": "nonpayable",
      "type": "function"
    },
    {
      "inputs": [
        {
          "internalType": "address",
          "name": "owner",
          "type": "address"
        }
      ],
      "name": "balanceOf",
      "outputs": [
        {
          "internalType": "uint256",
          "name": "",
          "type": "uint256"
        }
      ],
      "stateMutability": "view",
      "type": "function"
    },
    {
      "inputs": [
        {
          "internalType": "uint256",
          "name": "tokenId",
          "type": "uint256"
        }
      ],
      "name": "getApproved",
      "outputs": [
        {
          "internalType": "address",
          "name": "",
          "type": "address"
        }
      ],
      "stateMutability": "view",
      "type": "function"
    },
    {
      "inputs": [
        {
          "internalType": "address",
          "name": "owner",
          "type": "address"
        },
        {
          "internalType": "address",
          "name": "operator",
          "type": "address"
        }
      ],
      "name": "isApprovedForAll",
      "outputs": [
        {
          "internalType": "bool",
          "name": "",
          "type": "bool"
        }
      ],
      "stateMutability": "view",
      "type": "function"
    },
    {
      "inputs": [
        {
          "internalType": "bytes[]",
          "name": "data",
          "type": "bytes[]"
        }
      ],
      "name": "multicall",
      "outputs": [
        {
          "internalType": "bytes[]",
          "name": "results",
          "type": "bytes[]"
        }
      ],
      "stateMutability": "nonpayable",
      "type": "function"
    },
    {
      "inputs": [],
      "name": "name",
      "outputs": [
        {
          "internalType": "string",
          "name": "",
          "type": "string"
        }
      ],
      "stateMutability": "view",
      "type": "function"
    },
    {
      "inputs": [
        {
          "internalType": "address",
          "name": "beneficiaryAddress",
          "type": "address"
        },
        {
          "internalType": "uint64",
          "name": "startTimestamp",
          "type": "uint64"
        },
        {
          "internalType": "uint64",
          "name": "cliffDuration",
          "type": "uint64"
        },
        {
          "internalType": "uint64",
          "name": "vestingDuration",
          "type": "uint64"
        }
      ],
      "name": "newVesting",
      "outputs": [
        {
          "internalType": "address",
          "name": "",
          "type": "address"
        }
      ],
      "stateMutability": "nonpayable",
      "type": "function"
    },
    {
      "inputs": [
        {
          "internalType": "uint256",
          "name": "tokenId",
          "type": "uint256"
        }
      ],
      "name": "ownerOf",
      "outputs": [
        {
          "internalType": "address",
          "name": "",
          "type": "address"
        }
      ],
      "stateMutability": "view",
      "type": "function"
    },
    {
      "inputs": [
        {
          "internalType": "address",
          "name": "from",
          "type": "address"
        },
        {
          "internalType": "address",
          "name": "to",
          "type": "address"
        },
        {
          "internalType": "uint256",
          "name": "tokenId",
          "type": "uint256"
        }
      ],
      "name": "safeTransferFrom",
      "outputs": [],
      "stateMutability": "nonpayable",
      "type": "function"
    },
    {
      "inputs": [
        {
          "internalType": "address",
          "name": "from",
          "type": "address"
        },
        {
          "internalType": "address",
          "name": "to",
          "type": "address"
        },
        {
          "internalType": "uint256",
          "name": "tokenId",
          "type": "uint256"
        },
        {
          "internalType": "bytes",
          "name": "data",
          "type": "bytes"
        }
      ],
      "name": "safeTransferFrom",
      "outputs": [],
      "stateMutability": "nonpayable",
      "type": "function"
    },
    {
      "inputs": [
        {
          "internalType": "address",
          "name": "operator",
          "type": "address"
        },
        {
          "internalType": "bool",
          "name": "approved",
          "type": "bool"
        }
      ],
      "name": "setApprovalForAll",
      "outputs": [],
      "stateMutability": "nonpayable",
      "type": "function"
    },
    {
      "inputs": [
        {
          "internalType": "bytes4",
          "name": "interfaceId",
          "type": "bytes4"
        }
      ],
      "name": "supportsInterface",
      "outputs": [
        {
          "internalType": "bool",
          "name": "",
          "type": "bool"
        }
      ],
      "stateMutability": "view",
      "type": "function"
    },
    {
      "inputs": [],
      "name": "symbol",
      "outputs": [
        {
          "internalType": "string",
          "name": "",
          "type": "string"
        }
      ],
      "stateMutability": "view",
      "type": "function"
    },
    {
      "inputs": [],
      "name": "template",
      "outputs": [
        {
          "internalType": "address",
          "name": "",
          "type": "address"
        }
      ],
      "stateMutability": "view",
      "type": "function"
    },
    {
      "inputs": [
        {
          "internalType": "uint256",
          "name": "tokenId",
          "type": "uint256"
        }
      ],
      "name": "tokenURI",
      "outputs": [
        {
          "internalType": "string",
          "name": "",
          "type": "string"
        }
      ],
      "stateMutability": "view",
      "type": "function"
    },
    {
      "inputs": [
        {
          "internalType": "address",
          "name": "from",
          "type": "address"
        },
        {
          "internalType": "address",
          "name": "to",
          "type": "address"
        },
        {
          "internalType": "uint256",
          "name": "tokenId",
          "type": "uint256"
        }
      ],
      "name": "transferFrom",
      "outputs": [],
      "stateMutability": "nonpayable",
      "type": "function"
    }
  ],
  "bytecode": "0x60a0604052604051620000129062000108565b604051809103906000f0801580156200002f573d6000803e3d6000fd5b5073ffffffffffffffffffffffffffffffffffffffff1660809073ffffffffffffffffffffffffffffffffffffffff168152503480156200006f57600080fd5b506040518060400160405280600881526020017f56657374696e67730000000000000000000000000000000000000000000000008152506040518060400160405280600881526020017f56657374696e67730000000000000000000000000000000000000000000000008152508160009081620000ed919062000390565b508060019081620000ff919062000390565b50505062000477565b612fad806200347583390190565b600081519050919050565b7f4e487b7100000000000000000000000000000000000000000000000000000000600052604160045260246000fd5b7f4e487b7100000000000000000000000000000000000000000000000000000000600052602260045260246000fd5b600060028204905060018216806200019857607f821691505b602082108103620001ae57620001ad62000150565b5b50919050565b60008190508160005260206000209050919050565b60006020601f8301049050919050565b600082821b905092915050565b600060088302620002187fffffffffffffffffffffffffffffffffffffffffffffffffffffffffffffffff82620001d9565b620002248683620001d9565b95508019841693508086168417925050509392505050565b6000819050919050565b6000819050919050565b6000620002716200026b62000265846200023c565b62000246565b6200023c565b9050919050565b6000819050919050565b6200028d8362000250565b620002a56200029c8262000278565b848454620001e6565b825550505050565b600090565b620002bc620002ad565b620002c981848462000282565b505050565b5b81811015620002f157620002e5600082620002b2565b600181019050620002cf565b5050565b601f82111562000340576200030a81620001b4565b6200031584620001c9565b8101602085101562000325578190505b6200033d6200033485620001c9565b830182620002ce565b50505b505050565b600082821c905092915050565b6000620003656000198460080262000345565b1980831691505092915050565b600062000380838362000352565b9150826002028217905092915050565b6200039b8262000116565b67ffffffffffffffff811115620003b757620003b662000121565b5b620003c382546200017f565b620003d0828285620002f5565b600060209050601f831160018114620004085760008415620003f3578287015190505b620003ff858262000372565b8655506200046f565b601f1984166200041886620001b4565b60005b8281101562000442578489015182556001820191506020850194506020810190506200041b565b868310156200046257848901516200045e601f89168262000352565b8355505b6001600288020188555050505b505050505050565b608051612fdb6200049a6000396000818161076f0152610b530152612fdb6000f3fe608060405234801561001057600080fd5b50600436106101005760003560e01c806370a0823111610097578063b88d4fde11610066578063b88d4fde146102bf578063c87b56dd146102db578063d1d62d941461030b578063e985e9c51461033b57610100565b806370a082311461022557806395d89b4114610255578063a22cb46514610273578063ac9650d81461028f57610100565b806323b872dd116100d357806323b872dd1461019f57806342842e0e146101bb5780636352211e146101d75780636f2ddd931461020757610100565b806301ffc9a71461010557806306fdde0314610135578063081812fc14610153578063095ea7b314610183575b600080fd5b61011f600480360381019061011a9190611cb5565b61036b565b60405161012c9190611cfd565b60405180910390f35b61013d61044d565b60405161014a9190611da8565b60405180910390f35b61016d60048036038101906101689190611e00565b6104df565b60405161017a9190611e6e565b60405180910390f35b61019d60048036038101906101989190611eb5565b610525565b005b6101b960048036038101906101b49190611ef5565b61063c565b005b6101d560048036038101906101d09190611ef5565b61069c565b005b6101f160048036038101906101ec9190611e00565b6106bc565b6040516101fe9190611e6e565b60405180910390f35b61020f61076d565b60405161021c9190611e6e565b60405180910390f35b61023f600480360381019061023a9190611f48565b610791565b60405161024c9190611f84565b60405180910390f35b61025d610848565b60405161026a9190611da8565b60405180910390f35b61028d60048036038101906102889190611fcb565b6108da565b005b6102a960048036038101906102a49190612070565b6108f0565b6040516102b691906121d4565b60405180910390f35b6102d960048036038101906102d49190612326565b6109fc565b005b6102f560048036038101906102f09190611e00565b610a5e565b6040516103029190611da8565b60405180910390f35b610325600480360381019061032091906123e9565b610ac6565b6040516103329190611e6e565b60405180910390f35b61035560048036038101906103509190612450565b610d1c565b6040516103629190611cfd565b60405180910390f35b60007f80ac58cd000000000000000000000000000000000000000000000000000000007bffffffffffffffffffffffffffffffffffffffffffffffffffffffff1916827bffffffffffffffffffffffffffffffffffffffffffffffffffffffff1916148061043657507f5b5e139f000000000000000000000000000000000000000000000000000000007bffffffffffffffffffffffffffffffffffffffffffffffffffffffff1916827bffffffffffffffffffffffffffffffffffffffffffffffffffffffff1916145b80610446575061044582610db0565b5b9050919050565b60606000805461045c906124bf565b80601f0160208091040260200160405190810160405280929190818152602001828054610488906124bf565b80156104d55780601f106104aa576101008083540402835291602001916104d5565b820191906000526020600020905b8154815290600101906020018083116104b857829003601f168201915b5050505050905090565b60006104ea82610e1a565b6004600083815260200190815260200160002060009054906101000a900473ffffffffffffffffffffffffffffffffffffffff169050919050565b6000610530826106bc565b90508073ffffffffffffffffffffffffffffffffffffffff168373ffffffffffffffffffffffffffffffffffffffff16036105a0576040517f08c379a000000000000000000000000000000000000000000000000000000000815260040161059790612562565b60405180910390fd5b8073ffffffffffffffffffffffffffffffffffffffff166105bf610e65565b73ffffffffffffffffffffffffffffffffffffffff1614806105ee57506105ed816105e8610e65565b610d1c565b5b61062d576040517f08c379a0000000000000000000000000000000000000000000000000000000008152600401610624906125f4565b60405180910390fd5b6106378383610e6d565b505050565b61064d610647610e65565b82610f26565b61068c576040517f08c379a000000000000000000000000000000000000000000000000000000000815260040161068390612686565b60405180910390fd5b610697838383610fde565b505050565b6106b7838383604051806020016040528060008152506109fc565b505050565b6000806002600084815260200190815260200160002060009054906101000a900473ffffffffffffffffffffffffffffffffffffffff169050600073ffffffffffffffffffffffffffffffffffffffff168173ffffffffffffffffffffffffffffffffffffffff1603610764576040517f08c379a000000000000000000000000000000000000000000000000000000000815260040161075b906126f2565b60405180910390fd5b80915050919050565b7f000000000000000000000000000000000000000000000000000000000000000081565b60008073ffffffffffffffffffffffffffffffffffffffff168273ffffffffffffffffffffffffffffffffffffffff1603610801576040517f08c379a00000000000000000000000000000000000000000000000000000000081526004016107f890612784565b60405180910390fd5b600360008373ffffffffffffffffffffffffffffffffffffffff1673ffffffffffffffffffffffffffffffffffffffff168152602001908152602001600020549050919050565b606060018054610857906124bf565b80601f0160208091040260200160405190810160405280929190818152602001828054610883906124bf565b80156108d05780601f106108a5576101008083540402835291602001916108d0565b820191906000526020600020905b8154815290600101906020018083116108b357829003601f168201915b5050505050905090565b6108ec6108e5610e65565b8383611244565b5050565b60608282905067ffffffffffffffff81111561090f5761090e6121fb565b5b60405190808252806020026020018201604052801561094257816020015b606081526020019060019003908161092d5790505b50905060005b838390508110156109f5576109c43085858481811061096a576109696127a4565b5b905060200281019061097c91906127e2565b8080601f016020809104026020016040519081016040528093929190818152602001838380828437600081840152601f19601f820116905080830192505050505050506113b0565b8282815181106109d7576109d66127a4565b5b602002602001018190525080806109ed90612874565b915050610948565b5092915050565b610a0d610a07610e65565b83610f26565b610a4c576040517f08c379a0000000000000000000000000000000000000000000000000000000008152600401610a4390612686565b60405180910390fd5b610a58848484846113dd565b50505050565b6060610a6982610e1a565b6000610a73611439565b90506000815111610a935760405180602001604052806000815250610abe565b80610a9d84611450565b604051602001610aae9291906128f8565b6040516020818303038152906040525b915050919050565b6000610af47f7e89f4a350e57b646485d7ccb832f38ae8592422c11ef92439ee16439c57575960001b6115b0565b610b207f3e504bbadb04d151dc97ffeb5866462afbc1e109f621e717a4338f6e1616c05060001b6115b0565b610b4c7f6ebeb6388df476ec3ebde5cfe92a287680a14507eed884d8e88d2417077bb0ee60001b6115b0565b6000610b777f00000000000000000000000000000000000000000000000000000000000000006115b3565b9050610ba57f33bb3e1b823308514b22b86d757f3c67ff1460f91977f0aa932301d2a1d62f9a60001b6115b0565b610bd17ff47f8fd37edd0c52076db8198970e2a761a67ce14f6b0d65f0c6105babe10d5560001b6115b0565b8073ffffffffffffffffffffffffffffffffffffffff16630b3980858686866040518463ffffffff1660e01b8152600401610c0e9392919061292b565b600060405180830381600087803b158015610c2857600080fd5b505af1158015610c3c573d6000803e3d6000fd5b50505050610c6c7feddec0987d659c71570d8fb627cceff2fdb83d4651f6556af588c527068e4a6e60001b6115b0565b610c987fb496731de30e6128bee988f01272736ede4ca950d03ccee152e821595fa22a1660001b6115b0565b610cb8868273ffffffffffffffffffffffffffffffffffffffff16611687565b610ce47f9bb81fbf870d11350665cf924f9a15d5532c77ec39bbb4927ec49d4760aba0b260001b6115b0565b610d107fa8b4e72d64e4437872b672e5898a6868443ea67686354ec6b4d14b44cbf7e09160001b6115b0565b80915050949350505050565b6000600560008473ffffffffffffffffffffffffffffffffffffffff1673ffffffffffffffffffffffffffffffffffffffff16815260200190815260200160002060008373ffffffffffffffffffffffffffffffffffffffff1673ffffffffffffffffffffffffffffffffffffffff16815260200190815260200160002060009054906101000a900460ff16905092915050565b60007f01ffc9a7000000000000000000000000000000000000000000000000000000007bffffffffffffffffffffffffffffffffffffffffffffffffffffffff1916827bffffffffffffffffffffffffffffffffffffffffffffffffffffffff1916149050919050565b610e2381611860565b610e62576040517f08c379a0000000000000000000000000000000000000000000000000000000008152600401610e59906126f2565b60405180910390fd5b50565b600033905090565b816004600083815260200190815260200160002060006101000a81548173ffffffffffffffffffffffffffffffffffffffff021916908373ffffffffffffffffffffffffffffffffffffffff160217905550808273ffffffffffffffffffffffffffffffffffffffff16610ee0836106bc565b73ffffffffffffffffffffffffffffffffffffffff167f8c5be1e5ebec7d5bd14f71427d1e84f3dd0314c0f7b2291e5b200ac8c7c3b92560405160405180910390a45050565b6000610f547f65c8abc1b8a7b7287dce4189ec10558a20e0f6cddac81e3f63de08a50e99527260001b6115b0565b610f807fafc883efca40507d24fc2548b864d35266471e6dedb1c252f5e786a0bdc1ce2460001b6115b0565b610fac7fb92761a495bae6cfedc43c9ffe0c21bbf313978007bb18b91896bd8617dc581160001b6115b0565b818373ffffffffffffffffffffffffffffffffffffffff161480610fd65750610fd583836118cc565b5b905092915050565b8273ffffffffffffffffffffffffffffffffffffffff16610ffe826106bc565b73ffffffffffffffffffffffffffffffffffffffff1614611054576040517f08c379a000000000000000000000000000000000000000000000000000000000815260040161104b906129d4565b60405180910390fd5b600073ffffffffffffffffffffffffffffffffffffffff168273ffffffffffffffffffffffffffffffffffffffff16036110c3576040517f08c379a00000000000000000000000000000000000000000000000000000000081526004016110ba90612a66565b60405180910390fd5b6110ce838383611961565b6110d9600082610e6d565b6001600360008573ffffffffffffffffffffffffffffffffffffffff1673ffffffffffffffffffffffffffffffffffffffff16815260200190815260200160002060008282546111299190612a86565b925050819055506001600360008473ffffffffffffffffffffffffffffffffffffffff1673ffffffffffffffffffffffffffffffffffffffff16815260200190815260200160002060008282546111809190612aba565b92505081905550816002600083815260200190815260200160002060006101000a81548173ffffffffffffffffffffffffffffffffffffffff021916908373ffffffffffffffffffffffffffffffffffffffff160217905550808273ffffffffffffffffffffffffffffffffffffffff168473ffffffffffffffffffffffffffffffffffffffff167fddf252ad1be2c89b69c2b068fc378daa952ba7f163c4a11628f55a4df523b3ef60405160405180910390a461123f838383611966565b505050565b8173ffffffffffffffffffffffffffffffffffffffff168373ffffffffffffffffffffffffffffffffffffffff16036112b2576040517f08c379a00000000000000000000000000000000000000000000000000000000081526004016112a990612b3a565b60405180910390fd5b80600560008573ffffffffffffffffffffffffffffffffffffffff1673ffffffffffffffffffffffffffffffffffffffff16815260200190815260200160002060008473ffffffffffffffffffffffffffffffffffffffff1673ffffffffffffffffffffffffffffffffffffffff16815260200190815260200160002060006101000a81548160ff0219169083151502179055508173ffffffffffffffffffffffffffffffffffffffff168373ffffffffffffffffffffffffffffffffffffffff167f17307eab39ab6107e8899845ad3d59bd9653f200f220920489ca2b5937696c31836040516113a39190611cfd565b60405180910390a3505050565b60606113d58383604051806060016040528060278152602001612f7f6027913961196b565b905092915050565b6113e8848484610fde565b6113f484848484611a38565b611433576040517f08c379a000000000000000000000000000000000000000000000000000000000815260040161142a90612bcc565b60405180910390fd5b50505050565b606060405180602001604052806000815250905090565b606060008203611497576040518060400160405280600181526020017f300000000000000000000000000000000000000000000000000000000000000081525090506115ab565b600082905060005b600082146114c95780806114b290612874565b915050600a826114c29190612c1b565b915061149f565b60008167ffffffffffffffff8111156114e5576114e46121fb565b5b6040519080825280601f01601f1916602001820160405280156115175781602001600182028036833780820191505090505b5090505b600085146115a4576001826115309190612a86565b9150600a8561153f9190612c4c565b603061154b9190612aba565b60f81b818381518110611561576115606127a4565b5b60200101907effffffffffffffffffffffffffffffffffffffffffffffffffffffffffffff1916908160001a905350600a8561159d9190612c1b565b945061151b565b8093505050505b919050565b50565b60006040517f3d602d80600a3d3981f3363d3d373d3d3d363d7300000000000000000000000081528260601b60148201527f5af43d82803e903d91602b57fd5bf3000000000000000000000000000000000060288201526037816000f0915050600073ffffffffffffffffffffffffffffffffffffffff168173ffffffffffffffffffffffffffffffffffffffff1603611682576040517f08c379a000000000000000000000000000000000000000000000000000000000815260040161167990612cc9565b60405180910390fd5b919050565b600073ffffffffffffffffffffffffffffffffffffffff168273ffffffffffffffffffffffffffffffffffffffff16036116f6576040517f08c379a00000000000000000000000000000000000000000000000000000000081526004016116ed90612d35565b60405180910390fd5b6116ff81611860565b1561173f576040517f08c379a000000000000000000000000000000000000000000000000000000000815260040161173690612da1565b60405180910390fd5b61174b60008383611961565b6001600360008473ffffffffffffffffffffffffffffffffffffffff1673ffffffffffffffffffffffffffffffffffffffff168152602001908152602001600020600082825461179b9190612aba565b92505081905550816002600083815260200190815260200160002060006101000a81548173ffffffffffffffffffffffffffffffffffffffff021916908373ffffffffffffffffffffffffffffffffffffffff160217905550808273ffffffffffffffffffffffffffffffffffffffff16600073ffffffffffffffffffffffffffffffffffffffff167fddf252ad1be2c89b69c2b068fc378daa952ba7f163c4a11628f55a4df523b3ef60405160405180910390a461185c60008383611966565b5050565b60008073ffffffffffffffffffffffffffffffffffffffff166002600084815260200190815260200160002060009054906101000a900473ffffffffffffffffffffffffffffffffffffffff1673ffffffffffffffffffffffffffffffffffffffff1614159050919050565b6000806118d8836106bc565b90508073ffffffffffffffffffffffffffffffffffffffff168473ffffffffffffffffffffffffffffffffffffffff16148061191a57506119198185610d1c565b5b8061195857508373ffffffffffffffffffffffffffffffffffffffff16611940846104df565b73ffffffffffffffffffffffffffffffffffffffff16145b91505092915050565b505050565b505050565b606061197684611bbf565b6119b5576040517f08c379a00000000000000000000000000000000000000000000000000000000081526004016119ac90612e33565b60405180910390fd5b6000808573ffffffffffffffffffffffffffffffffffffffff16856040516119dd9190612e8f565b600060405180830381855af49150503d8060008114611a18576040519150601f19603f3d011682016040523d82523d6000602084013e611a1d565b606091505b5091509150611a2d828286611be2565b925050509392505050565b6000611a598473ffffffffffffffffffffffffffffffffffffffff16611bbf565b15611bb2578373ffffffffffffffffffffffffffffffffffffffff1663150b7a02611a82610e65565b8786866040518563ffffffff1660e01b8152600401611aa49493929190612ef0565b6020604051808303816000875af1925050508015611ae057506040513d601f19601f82011682018060405250810190611add9190612f51565b60015b611b62573d8060008114611b10576040519150601f19603f3d011682016040523d82523d6000602084013e611b15565b606091505b506000815103611b5a576040517f08c379a0000000000000000000000000000000000000000000000000000000008152600401611b5190612bcc565b60405180910390fd5b805181602001fd5b63150b7a0260e01b7bffffffffffffffffffffffffffffffffffffffffffffffffffffffff1916817bffffffffffffffffffffffffffffffffffffffffffffffffffffffff191614915050611bb7565b600190505b949350505050565b6000808273ffffffffffffffffffffffffffffffffffffffff163b119050919050565b60608315611bf257829050611c42565b600083511115611c055782518084602001fd5b816040517f08c379a0000000000000000000000000000000000000000000000000000000008152600401611c399190611da8565b60405180910390fd5b9392505050565b6000604051905090565b600080fd5b600080fd5b60007fffffffff0000000000000000000000000000000000000000000000000000000082169050919050565b611c9281611c5d565b8114611c9d57600080fd5b50565b600081359050611caf81611c89565b92915050565b600060208284031215611ccb57611cca611c53565b5b6000611cd984828501611ca0565b91505092915050565b60008115159050919050565b611cf781611ce2565b82525050565b6000602082019050611d126000830184611cee565b92915050565b600081519050919050565b600082825260208201905092915050565b60005b83811015611d52578082015181840152602081019050611d37565b60008484015250505050565b6000601f19601f8301169050919050565b6000611d7a82611d18565b611d848185611d23565b9350611d94818560208601611d34565b611d9d81611d5e565b840191505092915050565b60006020820190508181036000830152611dc28184611d6f565b905092915050565b6000819050919050565b611ddd81611dca565b8114611de857600080fd5b50565b600081359050611dfa81611dd4565b92915050565b600060208284031215611e1657611e15611c53565b5b6000611e2484828501611deb565b91505092915050565b600073ffffffffffffffffffffffffffffffffffffffff82169050919050565b6000611e5882611e2d565b9050919050565b611e6881611e4d565b82525050565b6000602082019050611e836000830184611e5f565b92915050565b611e9281611e4d565b8114611e9d57600080fd5b50565b600081359050611eaf81611e89565b92915050565b60008060408385031215611ecc57611ecb611c53565b5b6000611eda85828601611ea0565b9250506020611eeb85828601611deb565b9150509250929050565b600080600060608486031215611f0e57611f0d611c53565b5b6000611f1c86828701611ea0565b9350506020611f2d86828701611ea0565b9250506040611f3e86828701611deb565b9150509250925092565b600060208284031215611f5e57611f5d611c53565b5b6000611f6c84828501611ea0565b91505092915050565b611f7e81611dca565b82525050565b6000602082019050611f996000830184611f75565b92915050565b611fa881611ce2565b8114611fb357600080fd5b50565b600081359050611fc581611f9f565b92915050565b60008060408385031215611fe257611fe1611c53565b5b6000611ff085828601611ea0565b925050602061200185828601611fb6565b9150509250929050565b600080fd5b600080fd5b600080fd5b60008083601f8401126120305761202f61200b565b5b8235905067ffffffffffffffff81111561204d5761204c612010565b5b60208301915083602082028301111561206957612068612015565b5b9250929050565b6000806020838503121561208757612086611c53565b5b600083013567ffffffffffffffff8111156120a5576120a4611c58565b5b6120b18582860161201a565b92509250509250929050565b600081519050919050565b600082825260208201905092915050565b6000819050602082019050919050565b600081519050919050565b600082825260208201905092915050565b6000612110826120e9565b61211a81856120f4565b935061212a818560208601611d34565b61213381611d5e565b840191505092915050565b600061214a8383612105565b905092915050565b6000602082019050919050565b600061216a826120bd565b61217481856120c8565b935083602082028501612186856120d9565b8060005b858110156121c257848403895281516121a3858261213e565b94506121ae83612152565b925060208a0199505060018101905061218a565b50829750879550505050505092915050565b600060208201905081810360008301526121ee818461215f565b905092915050565b600080fd5b7f4e487b7100000000000000000000000000000000000000000000000000000000600052604160045260246000fd5b61223382611d5e565b810181811067ffffffffffffffff82111715612252576122516121fb565b5b80604052505050565b6000612265611c49565b9050612271828261222a565b919050565b600067ffffffffffffffff821115612291576122906121fb565b5b61229a82611d5e565b9050602081019050919050565b82818337600083830152505050565b60006122c96122c484612276565b61225b565b9050828152602081018484840111156122e5576122e46121f6565b5b6122f08482856122a7565b509392505050565b600082601f83011261230d5761230c61200b565b5b813561231d8482602086016122b6565b91505092915050565b600080600080608085870312156123405761233f611c53565b5b600061234e87828801611ea0565b945050602061235f87828801611ea0565b935050604061237087828801611deb565b925050606085013567ffffffffffffffff81111561239157612390611c58565b5b61239d878288016122f8565b91505092959194509250565b600067ffffffffffffffff82169050919050565b6123c6816123a9565b81146123d157600080fd5b50565b6000813590506123e3816123bd565b92915050565b6000806000806080858703121561240357612402611c53565b5b600061241187828801611ea0565b9450506020612422878288016123d4565b9350506040612433878288016123d4565b9250506060612444878288016123d4565b91505092959194509250565b6000806040838503121561246757612466611c53565b5b600061247585828601611ea0565b925050602061248685828601611ea0565b9150509250929050565b7f4e487b7100000000000000000000000000000000000000000000000000000000600052602260045260246000fd5b600060028204905060018216806124d757607f821691505b6020821081036124ea576124e9612490565b5b50919050565b7f4552433732313a20617070726f76616c20746f2063757272656e74206f776e6560008201527f7200000000000000000000000000000000000000000000000000000000000000602082015250565b600061254c602183611d23565b9150612557826124f0565b604082019050919050565b6000602082019050818103600083015261257b8161253f565b9050919050565b7f4552433732313a20617070726f76652063616c6c6572206973206e6f7420746f60008201527f6b656e206f776e6572206e6f7220617070726f76656420666f7220616c6c0000602082015250565b60006125de603e83611d23565b91506125e982612582565b604082019050919050565b6000602082019050818103600083015261260d816125d1565b9050919050565b7f4552433732313a2063616c6c6572206973206e6f7420746f6b656e206f776e6560008201527f72206e6f7220617070726f766564000000000000000000000000000000000000602082015250565b6000612670602e83611d23565b915061267b82612614565b604082019050919050565b6000602082019050818103600083015261269f81612663565b9050919050565b7f4552433732313a20696e76616c696420746f6b656e2049440000000000000000600082015250565b60006126dc601883611d23565b91506126e7826126a6565b602082019050919050565b6000602082019050818103600083015261270b816126cf565b9050919050565b7f4552433732313a2061646472657373207a65726f206973206e6f74206120766160008201527f6c6964206f776e65720000000000000000000000000000000000000000000000602082015250565b600061276e602983611d23565b915061277982612712565b604082019050919050565b6000602082019050818103600083015261279d81612761565b9050919050565b7f4e487b7100000000000000000000000000000000000000000000000000000000600052603260045260246000fd5b600080fd5b600080fd5b600080fd5b600080833560016020038436030381126127ff576127fe6127d3565b5b80840192508235915067ffffffffffffffff821115612821576128206127d8565b5b60208301925060018202360383131561283d5761283c6127dd565b5b509250929050565b7f4e487b7100000000000000000000000000000000000000000000000000000000600052601160045260246000fd5b600061287f82611dca565b91507fffffffffffffffffffffffffffffffffffffffffffffffffffffffffffffffff82036128b1576128b0612845565b5b600182019050919050565b600081905092915050565b60006128d282611d18565b6128dc81856128bc565b93506128ec818560208601611d34565b80840191505092915050565b600061290482856128c7565b915061291082846128c7565b91508190509392505050565b612925816123a9565b82525050565b6000606082019050612940600083018661291c565b61294d602083018561291c565b61295a604083018461291c565b949350505050565b7f4552433732313a207472616e736665722066726f6d20696e636f72726563742060008201527f6f776e6572000000000000000000000000000000000000000000000000000000602082015250565b60006129be602583611d23565b91506129c982612962565b604082019050919050565b600060208201905081810360008301526129ed816129b1565b9050919050565b7f4552433732313a207472616e7366657220746f20746865207a65726f2061646460008201527f7265737300000000000000000000000000000000000000000000000000000000602082015250565b6000612a50602483611d23565b9150612a5b826129f4565b604082019050919050565b60006020820190508181036000830152612a7f81612a43565b9050919050565b6000612a9182611dca565b9150612a9c83611dca565b9250828203905081811115612ab457612ab3612845565b5b92915050565b6000612ac582611dca565b9150612ad083611dca565b9250828201905080821115612ae857612ae7612845565b5b92915050565b7f4552433732313a20617070726f766520746f2063616c6c657200000000000000600082015250565b6000612b24601983611d23565b9150612b2f82612aee565b602082019050919050565b60006020820190508181036000830152612b5381612b17565b9050919050565b7f4552433732313a207472616e7366657220746f206e6f6e20455243373231526560008201527f63656976657220696d706c656d656e7465720000000000000000000000000000602082015250565b6000612bb6603283611d23565b9150612bc182612b5a565b604082019050919050565b60006020820190508181036000830152612be581612ba9565b9050919050565b7f4e487b7100000000000000000000000000000000000000000000000000000000600052601260045260246000fd5b6000612c2682611dca565b9150612c3183611dca565b925082612c4157612c40612bec565b5b828204905092915050565b6000612c5782611dca565b9150612c6283611dca565b925082612c7257612c71612bec565b5b828206905092915050565b7f455243313136373a20637265617465206661696c656400000000000000000000600082015250565b6000612cb3601683611d23565b9150612cbe82612c7d565b602082019050919050565b60006020820190508181036000830152612ce281612ca6565b9050919050565b7f4552433732313a206d696e7420746f20746865207a65726f2061646472657373600082015250565b6000612d1f602083611d23565b9150612d2a82612ce9565b602082019050919050565b60006020820190508181036000830152612d4e81612d12565b9050919050565b7f4552433732313a20746f6b656e20616c7265616479206d696e74656400000000600082015250565b6000612d8b601c83611d23565b9150612d9682612d55565b602082019050919050565b60006020820190508181036000830152612dba81612d7e565b9050919050565b7f416464726573733a2064656c65676174652063616c6c20746f206e6f6e2d636f60008201527f6e74726163740000000000000000000000000000000000000000000000000000602082015250565b6000612e1d602683611d23565b9150612e2882612dc1565b604082019050919050565b60006020820190508181036000830152612e4c81612e10565b9050919050565b600081905092915050565b6000612e69826120e9565b612e738185612e53565b9350612e83818560208601611d34565b80840191505092915050565b6000612e9b8284612e5e565b915081905092915050565b600082825260208201905092915050565b6000612ec2826120e9565b612ecc8185612ea6565b9350612edc818560208601611d34565b612ee581611d5e565b840191505092915050565b6000608082019050612f056000830187611e5f565b612f126020830186611e5f565b612f1f6040830185611f75565b8181036060830152612f318184612eb7565b905095945050505050565b600081519050612f4b81611c89565b92915050565b600060208284031215612f6757612f66611c53565b5b6000612f7584828501612f3c565b9150509291505056fe416464726573733a206c6f772d6c6576656c2064656c65676174652063616c6c206661696c6564a2646970667358221220a2b388c8240ba130db0f280590baea2f4eca2edd94a915c0c3f82dfb09f9aa5164736f6c6343000810003360a06040523373ffffffffffffffffffffffffffffffffffffffff1660809073ffffffffffffffffffffffffffffffffffffffff168152503480156200004457600080fd5b5060008060019054906101000a900460ff16159050808015620000775750600160008054906101000a900460ff1660ff16105b80620000b357506200009430620001ca60201b620013921760201c565b158015620000b25750600160008054906101000a900460ff1660ff16145b5b620000f5576040517f08c379a0000000000000000000000000000000000000000000000000000000008152600401620000ec9062000277565b60405180910390fd5b60016000806101000a81548160ff021916908360ff160217905550801562000133576001600060016101000a81548160ff0219169083151502179055505b620001677fb722de2e920ede937f7811f167fe653233c0d8324f30f4f989b7c33557fad31660001b620001ed60201b60201c565b8015620001c35760008060016101000a81548160ff0219169083151502179055507f7f26b83ff96e1f2b6a682f133852f6798a09c465da95921460cefb38474024986001604051620001ba9190620002f3565b60405180910390a15b5062000310565b6000808273ffffffffffffffffffffffffffffffffffffffff163b119050919050565b50565b600082825260208201905092915050565b7f496e697469616c697a61626c653a20636f6e747261637420697320616c72656160008201527f647920696e697469616c697a6564000000000000000000000000000000000000602082015250565b60006200025f602e83620001f0565b91506200026c8262000201565b604082019050919050565b60006020820190508181036000830152620002928162000250565b9050919050565b6000819050919050565b600060ff82169050919050565b6000819050919050565b6000620002db620002d5620002cf8462000299565b620002b0565b620002a3565b9050919050565b620002ed81620002ba565b82525050565b60006020820190506200030a6000830184620002e2565b92915050565b608051612c736200033a6000396000818161091b01528181610d5801526112e50152612c736000f3fe60806040526004361061010d5760003560e01c80638ab6568611610095578063ac9650d811610064578063ac9650d814610364578063b01b3450146103a1578063be9a6555146103cc578063c9ac9eb3146103f7578063f2fde38b1461043457610114565b80638ab65686146102a85780638da5cb5b146102d157806396132521146102fc5780639852595c1461032757610114565b806319165587116100dc57806319165587146101d557806338af3eed146101fe5780637b10399914610229578063810ec23b1461025457806386d1a69f1461029157610114565b80630a17b06b146101195780630b398085146101565780630fb5a6b41461017f57806313d033c0146101aa57610114565b3661011457005b600080fd5b34801561012557600080fd5b50610140600480360381019061013b9190611c7a565b61045d565b60405161014d9190611cc0565b60405180910390f35b34801561016257600080fd5b5061017d60048036038101906101789190611cdb565b610482565b005b34801561018b57600080fd5b506101946106d7565b6040516101a19190611cc0565b60405180910390f35b3480156101b657600080fd5b506101bf6106ff565b6040516101cc9190611cc0565b60405180910390f35b3480156101e157600080fd5b506101fc60048036038101906101f79190611d8c565b6107ab565b005b34801561020a57600080fd5b50610213610886565b6040516102209190611dc8565b60405180910390f35b34801561023557600080fd5b5061023e610919565b60405161024b9190611e42565b60405180910390f35b34801561026057600080fd5b5061027b60048036038101906102769190611e5d565b61093d565b6040516102889190611cc0565b60405180910390f35b34801561029d57600080fd5b506102a66109dd565b005b3480156102b457600080fd5b506102cf60048036038101906102ca9190611edb565b610a60565b005b3480156102dd57600080fd5b506102e6610cd0565b6040516102f39190611dc8565b60405180910390f35b34801561030857600080fd5b50610311610e0b565b60405161031e9190611cc0565b60405180910390f35b34801561033357600080fd5b5061034e60048036038101906103499190611d8c565b610e15565b60405161035b9190611cc0565b60405180910390f35b34801561037057600080fd5b5061038b60048036038101906103869190611f80565b610e5e565b604051610398919061211f565b60405180910390f35b3480156103ad57600080fd5b506103b6610f6a565b6040516103c39190611cc0565b60405180910390f35b3480156103d857600080fd5b506103e1611010565b6040516103ee9190611cc0565b60405180910390f35b34801561040357600080fd5b5061041e60048036038101906104199190611d8c565b611038565b60405161042b9190611cc0565b60405180910390f35b34801561044057600080fd5b5061045b60048036038101906104569190611d8c565b6110e2565b005b600061047b61046a610e0b565b476104759190612170565b836113b5565b9050919050565b60008060019054906101000a900460ff161590508080156104b35750600160008054906101000a900460ff1660ff16105b806104e057506104c230611392565b1580156104df5750600160008054906101000a900460ff1660ff16145b5b61051f576040517f08c379a000000000000000000000000000000000000000000000000000000000815260040161051690612227565b60405180910390fd5b60016000806101000a81548160ff021916908360ff160217905550801561055c576001600060016101000a81548160ff0219169083151502179055505b6105887fb727094455aa1786791982bb9280747ef6e872924c97cd216fa1ec4cecf3aa6360001b611486565b6105b47f2ab36fc5b32137d52d781f2e9a45da3a86cbf9f3d9735e43ef6769f8bf1d478360001b611486565b6105e07f83ad25f51458f735747f0cacd2b0e021a0802d7304b8dbf381eabffdef25464960001b611486565b6105ec60018584611489565b6106187f2cf96f10887bd486d6e56cd300e102ad3bb1c5e75c0246547dffd107b82c773f60001b611486565b6106447f032b952903f1887c8829032c3140c2807a372c05a22e16befe9f22eaba2c8cf960001b611486565b82846106509190612247565b606760006101000a81548167ffffffffffffffff021916908367ffffffffffffffff16021790555080156106d15760008060016101000a81548160ff0219169083151502179055507f7f26b83ff96e1f2b6a682f133852f6798a09c465da95921460cefb384740249860016040516106c891906122cb565b60405180910390a15b50505050565b6000603660009054906101000a900467ffffffffffffffff1667ffffffffffffffff16905090565b600061072d7f4d87ac5a63336940a20cb40657d9da88a6b013d7c623c4ac0c54f2e2ee9bc21c60001b611486565b6107597f4fa293d42f46557e536445d63094a4e5cbec4ec4f8aea564147946c4825331b360001b611486565b6107857f3db5d26c6bfef1d2b237f43e00ef8b6a5a7837cd753bd08b5e44bc1305405c0760001b611486565b606760009054906101000a900467ffffffffffffffff1667ffffffffffffffff16905090565b60006107b682610e15565b6107c0834261093d565b6107ca91906122e6565b905080603460008473ffffffffffffffffffffffffffffffffffffffff1673ffffffffffffffffffffffffffffffffffffffff168152602001908152602001600020600082825461081b9190612170565b925050819055508173ffffffffffffffffffffffffffffffffffffffff167fc0e523490dd523c33b1878c9eb14ff46991e3f5b2cd33710918618f2a39cba1b826040516108689190611cc0565b60405180910390a26108828261087c610886565b836114e8565b5050565b60006108b47f7192fec79932c1130b5275258b542e6af04875a2913582d39607a2a78f79536760001b611486565b6108e07f6cbc1bec7e4d010c259de7c9086159c41341c2f83fa0d2d296510feed417a6ee60001b611486565b61090c7fe1544481e8ebe81ae8d68d9a9e4dc85cadb05bb4c27af45e88ed0b46d8de66f860001b611486565b610914610cd0565b905090565b7f000000000000000000000000000000000000000000000000000000000000000081565b60006109d561094b84610e15565b8473ffffffffffffffffffffffffffffffffffffffff166370a08231306040518263ffffffff1660e01b81526004016109849190611dc8565b602060405180830381865afa1580156109a1573d6000803e3d6000fd5b505050506040513d601f19601f820116820180604052508101906109c59190612346565b6109cf9190612170565b836113b5565b905092915050565b60006109e7610e0b565b6109f04261045d565b6109fa91906122e6565b90508060336000828254610a0e9190612170565b925050819055507fda9d4e5f101b8b9b1c5b76d0c5a9f7923571acfc02376aa076b75a8c080c956b81604051610a449190611cc0565b60405180910390a1610a5d610a57610886565b8261156e565b50565b610a8c7f63237cb0416177459831b544e39036c6d6d7f85c627f66c1bcdb6318e50efc7260001b611486565b610ab87f95fac327b8f89915f398346091967579bfdfcb462ee42cf93f5949edcc9d318260001b611486565b610ae47f0142c8290c08b63d588aaf61852f1877f1ec7230d88c600830e1dda115c8d1b260001b611486565b610b107fc7757e8bafca6a6e352ad1f2d348a30566091d3aaffee24cc82670732a68d3ae60001b611486565b3373ffffffffffffffffffffffffffffffffffffffff16610b2f610cd0565b73ffffffffffffffffffffffffffffffffffffffff1614610b85576040517f08c379a0000000000000000000000000000000000000000000000000000000008152600401610b7c906123e5565b60405180910390fd5b610bb17f2e802f8ee820bb3def20c24ab927e5f4226d69942045ee8057e576d33987579b60001b611486565b610bdd7f649e18233600ef3224e3f8e631da080f3ca4b63e8660073205d2ee1311ad899860001b611486565b610c097fb8ced79b63349fcef3f2f224daba547322be65d4a0aa39079d86cc044d55bb1360001b611486565b610c357fd6874c993b1f72c1b89f0825c43215552f69fe39992161b579e5a4d98e987d4860001b611486565b610c617f77e5a5ffb7731029e24e75a05f947a0aeca5fd87e50c13e75875ba8aa010a32060001b611486565b8173ffffffffffffffffffffffffffffffffffffffff16635c19a95c826040518263ffffffff1660e01b8152600401610c9a9190611dc8565b600060405180830381600087803b158015610cb457600080fd5b505af1158015610cc8573d6000803e3d6000fd5b505050505050565b6000610cfe7fc47f0438de13a2bca320939bc0328c554d283795e993faa4c7a0d3e435ddc3f560001b611486565b610d2a7fa49c93e9d2139368730623df2a61a9a795ba57dcbcf1c78cec2f9e2201fb38f660001b611486565b610d567f0bec16edfc021e8a2fa3b0cd8d98609c0c015a67af1bcf00d66d2232a2856d2e60001b611486565b7f000000000000000000000000000000000000000000000000000000000000000073ffffffffffffffffffffffffffffffffffffffff16636352211e3073ffffffffffffffffffffffffffffffffffffffff166040518263ffffffff1660e01b8152600401610dc59190611cc0565b602060405180830381865afa158015610de2573d6000803e3d6000fd5b505050506040513d601f19601f82011682018060405250810190610e06919061241a565b905090565b6000603354905090565b6000603460008373ffffffffffffffffffffffffffffffffffffffff1673ffffffffffffffffffffffffffffffffffffffff168152602001908152602001600020549050919050565b60608282905067ffffffffffffffff811115610e7d57610e7c612447565b5b604051908082528060200260200182016040528015610eb057816020015b6060815260200190600190039081610e9b5790505b50905060005b83839050811015610f6357610f3230858584818110610ed857610ed7612476565b5b9050602002810190610eea91906124b4565b8080601f016020809104026020016040519081016040528093929190818152602001838380828437600081840152601f19601f82011690508083019250505050505050611662565b828281518110610f4557610f44612476565b5b60200260200101819052508080610f5b90612517565b915050610eb6565b5092915050565b6000610f987fba9987a81208b9c8494c4b7a000e6aefbdee1b3d0ce04a91351dc973f6e2878a60001b611486565b610fc47f2bf14ff58d761c1fe12f1898c6721c7235715f2903c0a2218a5f6318a0f67e8660001b611486565b610ff07f4131910982a73d79a21ed4fc8972db8ea5a935c2bc608b480c847fab92b2586260001b611486565b610ff8610e0b565b6110014261045d565b61100b91906122e6565b905090565b6000603560149054906101000a900467ffffffffffffffff1667ffffffffffffffff16905090565b60006110667f219bf7b1d2c504b80460fa8efde14cf8c000268cbf444328586f54028591ff8160001b611486565b6110927fb23f42ee3cbf208cf924a3d68b32e8104ef9d2b1ff9b426b518cbc4d006f052e60001b611486565b6110be7f6d28a2b6bb2913a3eafc5af802fe80c71e2ac79e7b92e924005e60faaa97c95d60001b611486565b6110c782610e15565b6110d1834261093d565b6110db91906122e6565b9050919050565b61110e7f63237cb0416177459831b544e39036c6d6d7f85c627f66c1bcdb6318e50efc7260001b611486565b61113a7f95fac327b8f89915f398346091967579bfdfcb462ee42cf93f5949edcc9d318260001b611486565b6111667f0142c8290c08b63d588aaf61852f1877f1ec7230d88c600830e1dda115c8d1b260001b611486565b6111927fc7757e8bafca6a6e352ad1f2d348a30566091d3aaffee24cc82670732a68d3ae60001b611486565b3373ffffffffffffffffffffffffffffffffffffffff166111b1610cd0565b73ffffffffffffffffffffffffffffffffffffffff1614611207576040517f08c379a00000000000000000000000000000000000000000000000000000000081526004016111fe906123e5565b60405180910390fd5b6112337f2e802f8ee820bb3def20c24ab927e5f4226d69942045ee8057e576d33987579b60001b611486565b61125f7f649e18233600ef3224e3f8e631da080f3ca4b63e8660073205d2ee1311ad899860001b611486565b61128b7f6dd6e28af5dce213117f29da7d7b63c21c9c634b36b02f5f68f70a44cbd1c7da60001b611486565b6112b77f09a9bb93198fca7fbfe0f2919538574590996da30006f3d9b7761e49cae2d68360001b611486565b6112e37f82ed0bca4b7772c4c3e54d6d705685a106fac4e92aa03e2f58b7b7e728d07d6660001b611486565b7f000000000000000000000000000000000000000000000000000000000000000073ffffffffffffffffffffffffffffffffffffffff166323b872dd611327610cd0565b833073ffffffffffffffffffffffffffffffffffffffff166040518463ffffffff1660e01b815260040161135d9392919061255f565b600060405180830381600087803b15801561137757600080fd5b505af115801561138b573d6000803e3d6000fd5b5050505050565b6000808273ffffffffffffffffffffffffffffffffffffffff163b119050919050565b60006113e37f7e80472b4bf806268750418607c8c175ead663bd8aa582f489bec99df871a79860001b611486565b61140f7f11f4ebd24adb228c38b3d37ff524b1cab8e40cebcb84a1cbb58401f014edfa7c60001b611486565b61143b7ff2652bc17afbd8e51831e03aaf3b24e98f6a1eb307d99e3439342c74bd1c71d960001b611486565b606760009054906101000a900467ffffffffffffffff1667ffffffffffffffff168267ffffffffffffffff161061147b57611476838361168f565b61147e565b60005b905092915050565b50565b600060019054906101000a900460ff166114d8576040517f08c379a00000000000000000000000000000000000000000000000000000000081526004016114cf90612608565b60405180910390fd5b6114e3838383611729565b505050565b6115698363a9059cbb60e01b8484604051602401611507929190612628565b604051602081830303815290604052907bffffffffffffffffffffffffffffffffffffffffffffffffffffffff19166020820180517bffffffffffffffffffffffffffffffffffffffffffffffffffffffff838183161783525050505061187f565b505050565b804710156115b1576040517f08c379a00000000000000000000000000000000000000000000000000000000081526004016115a89061269d565b60405180910390fd5b60008273ffffffffffffffffffffffffffffffffffffffff16826040516115d7906126ee565b60006040518083038185875af1925050503d8060008114611614576040519150601f19603f3d011682016040523d82523d6000602084013e611619565b606091505b505090508061165d576040517f08c379a000000000000000000000000000000000000000000000000000000000815260040161165490612775565b60405180910390fd5b505050565b60606116878383604051806060016040528060278152602001612c1760279139611946565b905092915050565b6000611699611010565b8267ffffffffffffffff1610156116b35760009050611723565b6116bb6106d7565b6116c3611010565b6116cd9190612170565b8267ffffffffffffffff1611156116e657829050611723565b6116ee6106d7565b6116f6611010565b8367ffffffffffffffff1661170b91906122e6565b846117169190612795565b611720919061281e565b90505b92915050565b600060019054906101000a900460ff16611778576040517f08c379a000000000000000000000000000000000000000000000000000000000815260040161176f90612608565b60405180910390fd5b600073ffffffffffffffffffffffffffffffffffffffff168373ffffffffffffffffffffffffffffffffffffffff16036117e7576040517f08c379a00000000000000000000000000000000000000000000000000000000081526004016117de906128c1565b60405180910390fd5b82603560006101000a81548173ffffffffffffffffffffffffffffffffffffffff021916908373ffffffffffffffffffffffffffffffffffffffff16021790555081603560146101000a81548167ffffffffffffffff021916908367ffffffffffffffff16021790555080603660006101000a81548167ffffffffffffffff021916908367ffffffffffffffff160217905550505050565b60006118e1826040518060400160405280602081526020017f5361666545524332303a206c6f772d6c6576656c2063616c6c206661696c65648152508573ffffffffffffffffffffffffffffffffffffffff16611a139092919063ffffffff16565b905060008151111561194157808060200190518101906119019190612919565b611940576040517f08c379a0000000000000000000000000000000000000000000000000000000008152600401611937906129b8565b60405180910390fd5b5b505050565b606061195184611a2b565b611990576040517f08c379a000000000000000000000000000000000000000000000000000000000815260040161198790612a4a565b60405180910390fd5b6000808573ffffffffffffffffffffffffffffffffffffffff16856040516119b89190612a9b565b600060405180830381855af49150503d80600081146119f3576040519150601f19603f3d011682016040523d82523d6000602084013e6119f8565b606091505b5091509150611a08828286611a4e565b925050509392505050565b6060611a228484600085611ab5565b90509392505050565b6000808273ffffffffffffffffffffffffffffffffffffffff163b119050919050565b60608315611a5e57829050611aae565b600083511115611a715782518084602001fd5b816040517f08c379a0000000000000000000000000000000000000000000000000000000008152600401611aa59190612af6565b60405180910390fd5b9392505050565b606082471015611afa576040517f08c379a0000000000000000000000000000000000000000000000000000000008152600401611af190612b8a565b60405180910390fd5b611b0385611392565b611b42576040517f08c379a0000000000000000000000000000000000000000000000000000000008152600401611b3990612bf6565b60405180910390fd5b6000808673ffffffffffffffffffffffffffffffffffffffff168587604051611b6b9190612a9b565b60006040518083038185875af1925050503d8060008114611ba8576040519150601f19603f3d011682016040523d82523d6000602084013e611bad565b606091505b5091509150611bbd828286611bc9565b92505050949350505050565b60608315611bd957829050611c29565b600083511115611bec5782518084602001fd5b816040517f08c379a0000000000000000000000000000000000000000000000000000000008152600401611c209190612af6565b60405180910390fd5b9392505050565b600080fd5b600080fd5b600067ffffffffffffffff82169050919050565b611c5781611c3a565b8114611c6257600080fd5b50565b600081359050611c7481611c4e565b92915050565b600060208284031215611c9057611c8f611c30565b5b6000611c9e84828501611c65565b91505092915050565b6000819050919050565b611cba81611ca7565b82525050565b6000602082019050611cd56000830184611cb1565b92915050565b600080600060608486031215611cf457611cf3611c30565b5b6000611d0286828701611c65565b9350506020611d1386828701611c65565b9250506040611d2486828701611c65565b9150509250925092565b600073ffffffffffffffffffffffffffffffffffffffff82169050919050565b6000611d5982611d2e565b9050919050565b611d6981611d4e565b8114611d7457600080fd5b50565b600081359050611d8681611d60565b92915050565b600060208284031215611da257611da1611c30565b5b6000611db084828501611d77565b91505092915050565b611dc281611d4e565b82525050565b6000602082019050611ddd6000830184611db9565b92915050565b6000819050919050565b6000611e08611e03611dfe84611d2e565b611de3565b611d2e565b9050919050565b6000611e1a82611ded565b9050919050565b6000611e2c82611e0f565b9050919050565b611e3c81611e21565b82525050565b6000602082019050611e576000830184611e33565b92915050565b60008060408385031215611e7457611e73611c30565b5b6000611e8285828601611d77565b9250506020611e9385828601611c65565b9150509250929050565b6000611ea882611d4e565b9050919050565b611eb881611e9d565b8114611ec357600080fd5b50565b600081359050611ed581611eaf565b92915050565b60008060408385031215611ef257611ef1611c30565b5b6000611f0085828601611ec6565b9250506020611f1185828601611d77565b9150509250929050565b600080fd5b600080fd5b600080fd5b60008083601f840112611f4057611f3f611f1b565b5b8235905067ffffffffffffffff811115611f5d57611f5c611f20565b5b602083019150836020820283011115611f7957611f78611f25565b5b9250929050565b60008060208385031215611f9757611f96611c30565b5b600083013567ffffffffffffffff811115611fb557611fb4611c35565b5b611fc185828601611f2a565b92509250509250929050565b600081519050919050565b600082825260208201905092915050565b6000819050602082019050919050565b600081519050919050565b600082825260208201905092915050565b60005b83811015612033578082015181840152602081019050612018565b60008484015250505050565b6000601f19601f8301169050919050565b600061205b82611ff9565b6120658185612004565b9350612075818560208601612015565b61207e8161203f565b840191505092915050565b60006120958383612050565b905092915050565b6000602082019050919050565b60006120b582611fcd565b6120bf8185611fd8565b9350836020820285016120d185611fe9565b8060005b8581101561210d57848403895281516120ee8582612089565b94506120f98361209d565b925060208a019950506001810190506120d5565b50829750879550505050505092915050565b6000602082019050818103600083015261213981846120aa565b905092915050565b7f4e487b7100000000000000000000000000000000000000000000000000000000600052601160045260246000fd5b600061217b82611ca7565b915061218683611ca7565b925082820190508082111561219e5761219d612141565b5b92915050565b600082825260208201905092915050565b7f496e697469616c697a61626c653a20636f6e747261637420697320616c72656160008201527f647920696e697469616c697a6564000000000000000000000000000000000000602082015250565b6000612211602e836121a4565b915061221c826121b5565b604082019050919050565b6000602082019050818103600083015261224081612204565b9050919050565b600061225282611c3a565b915061225d83611c3a565b9250828201905067ffffffffffffffff81111561227d5761227c612141565b5b92915050565b6000819050919050565b600060ff82169050919050565b60006122b56122b06122ab84612283565b611de3565b61228d565b9050919050565b6122c58161229a565b82525050565b60006020820190506122e060008301846122bc565b92915050565b60006122f182611ca7565b91506122fc83611ca7565b925082820390508181111561231457612313612141565b5b92915050565b61232381611ca7565b811461232e57600080fd5b50565b6000815190506123408161231a565b92915050565b60006020828403121561235c5761235b611c30565b5b600061236a84828501612331565b91505092915050565b7f52656769737472794f776e61626c653a2063616c6c6572206973206e6f74207460008201527f6865206f776e6572000000000000000000000000000000000000000000000000602082015250565b60006123cf6028836121a4565b91506123da82612373565b604082019050919050565b600060208201905081810360008301526123fe816123c2565b9050919050565b60008151905061241481611d60565b92915050565b6000602082840312156124305761242f611c30565b5b600061243e84828501612405565b91505092915050565b7f4e487b7100000000000000000000000000000000000000000000000000000000600052604160045260246000fd5b7f4e487b7100000000000000000000000000000000000000000000000000000000600052603260045260246000fd5b600080fd5b600080fd5b600080fd5b600080833560016020038436030381126124d1576124d06124a5565b5b80840192508235915067ffffffffffffffff8211156124f3576124f26124aa565b5b60208301925060018202360383131561250f5761250e6124af565b5b509250929050565b600061252282611ca7565b91507fffffffffffffffffffffffffffffffffffffffffffffffffffffffffffffffff820361255457612553612141565b5b600182019050919050565b60006060820190506125746000830186611db9565b6125816020830185611db9565b61258e6040830184611cb1565b949350505050565b7f496e697469616c697a61626c653a20636f6e7472616374206973206e6f74206960008201527f6e697469616c697a696e67000000000000000000000000000000000000000000602082015250565b60006125f2602b836121a4565b91506125fd82612596565b604082019050919050565b60006020820190508181036000830152612621816125e5565b9050919050565b600060408201905061263d6000830185611db9565b61264a6020830184611cb1565b9392505050565b7f416464726573733a20696e73756666696369656e742062616c616e6365000000600082015250565b6000612687601d836121a4565b915061269282612651565b602082019050919050565b600060208201905081810360008301526126b68161267a565b9050919050565b600081905092915050565b50565b60006126d86000836126bd565b91506126e3826126c8565b600082019050919050565b60006126f9826126cb565b9150819050919050565b7f416464726573733a20756e61626c6520746f2073656e642076616c75652c207260008201527f6563697069656e74206d61792068617665207265766572746564000000000000602082015250565b600061275f603a836121a4565b915061276a82612703565b604082019050919050565b6000602082019050818103600083015261278e81612752565b9050919050565b60006127a082611ca7565b91506127ab83611ca7565b9250817fffffffffffffffffffffffffffffffffffffffffffffffffffffffffffffffff04831182151516156127e4576127e3612141565b5b828202905092915050565b7f4e487b7100000000000000000000000000000000000000000000000000000000600052601260045260246000fd5b600061282982611ca7565b915061283483611ca7565b925082612844576128436127ef565b5b828204905092915050565b7f56657374696e6757616c6c65743a2062656e6566696369617279206973207a6560008201527f726f206164647265737300000000000000000000000000000000000000000000602082015250565b60006128ab602a836121a4565b91506128b68261284f565b604082019050919050565b600060208201905081810360008301526128da8161289e565b9050919050565b60008115159050919050565b6128f6816128e1565b811461290157600080fd5b50565b600081519050612913816128ed565b92915050565b60006020828403121561292f5761292e611c30565b5b600061293d84828501612904565b91505092915050565b7f5361666545524332303a204552433230206f7065726174696f6e20646964206e60008201527f6f74207375636365656400000000000000000000000000000000000000000000602082015250565b60006129a2602a836121a4565b91506129ad82612946565b604082019050919050565b600060208201905081810360008301526129d181612995565b9050919050565b7f416464726573733a2064656c65676174652063616c6c20746f206e6f6e2d636f60008201527f6e74726163740000000000000000000000000000000000000000000000000000602082015250565b6000612a346026836121a4565b9150612a3f826129d8565b604082019050919050565b60006020820190508181036000830152612a6381612a27565b9050919050565b6000612a7582611ff9565b612a7f81856126bd565b9350612a8f818560208601612015565b80840191505092915050565b6000612aa78284612a6a565b915081905092915050565b600081519050919050565b6000612ac882612ab2565b612ad281856121a4565b9350612ae2818560208601612015565b612aeb8161203f565b840191505092915050565b60006020820190508181036000830152612b108184612abd565b905092915050565b7f416464726573733a20696e73756666696369656e742062616c616e636520666f60008201527f722063616c6c0000000000000000000000000000000000000000000000000000602082015250565b6000612b746026836121a4565b9150612b7f82612b18565b604082019050919050565b60006020820190508181036000830152612ba381612b67565b9050919050565b7f416464726573733a2063616c6c20746f206e6f6e2d636f6e7472616374000000600082015250565b6000612be0601d836121a4565b9150612beb82612baa565b602082019050919050565b60006020820190508181036000830152612c0f81612bd3565b905091905056fe416464726573733a206c6f772d6c6576656c2064656c65676174652063616c6c206661696c6564a26469706673582212204e12d0c6c051e9dd21dfaaaf77d64d257e0e9c6268a4a39c5bb8a17c1432e09464736f6c63430008100033",
  "linkReferences": {},
  "deployedLinkReferences": {}
}