{
  "_format": "hh-sol-artifact-1",
  "contractName": "VestingTemplate",
  "sourceName": "contracts/VestingFactory.sol",
  "abi": [
    {
      "inputs": [],
      "stateMutability": "nonpayable",
      "type": "constructor"
    },
    {
      "anonymous": false,
      "inputs": [
        {
          "indexed": true,
          "internalType": "address",
          "name": "token",
          "type": "address"
        },
        {
          "indexed": false,
          "internalType": "uint256",
          "name": "amount",
          "type": "uint256"
        }
      ],
      "name": "ERC20Released",
      "type": "event"
    },
    {
      "anonymous": false,
      "inputs": [
        {
          "indexed": false,
          "internalType": "uint256",
          "name": "amount",
          "type": "uint256"
        }
      ],
      "name": "EtherReleased",
      "type": "event"
    },
    {
      "anonymous": false,
      "inputs": [
        {
          "indexed": false,
          "internalType": "uint8",
          "name": "version",
          "type": "uint8"
        }
      ],
      "name": "Initialized",
      "type": "event"
    },
    {
      "inputs": [],
      "name": "beneficiary",
      "outputs": [
        {
          "internalType": "address",
          "name": "",
          "type": "address"
        }
      ],
      "stateMutability": "view",
      "type": "function"
    },
    {
      "inputs": [],
      "name": "cliff",
      "outputs": [
        {
          "internalType": "uint256",
          "name": "",
          "type": "uint256"
        }
      ],
      "stateMutability": "view",
      "type": "function"
    },
    {
      "inputs": [
        {
          "internalType": "contract IVotes",
          "name": "token",
          "type": "address"
        },
        {
          "internalType": "address",
          "name": "delegatee",
          "type": "address"
        }
      ],
      "name": "delegate",
      "outputs": [],
      "stateMutability": "nonpayable",
      "type": "function"
    },
    {
      "inputs": [],
      "name": "duration",
      "outputs": [
        {
          "internalType": "uint256",
          "name": "",
          "type": "uint256"
        }
      ],
      "stateMutability": "view",
      "type": "function"
    },
    {
      "inputs": [
        {
          "internalType": "uint64",
          "name": "startTimestamp",
          "type": "uint64"
        },
        {
          "internalType": "uint64",
          "name": "cliffDuration",
          "type": "uint64"
        },
        {
          "internalType": "uint64",
          "name": "vestingDuration",
          "type": "uint64"
        }
      ],
      "name": "initialize",
      "outputs": [],
      "stateMutability": "nonpayable",
      "type": "function"
    },
    {
      "inputs": [
        {
          "internalType": "bytes[]",
          "name": "data",
          "type": "bytes[]"
        }
      ],
      "name": "multicall",
      "outputs": [
        {
          "internalType": "bytes[]",
          "name": "results",
          "type": "bytes[]"
        }
      ],
      "stateMutability": "nonpayable",
      "type": "function"
    },
    {
      "inputs": [],
      "name": "owner",
      "outputs": [
        {
          "internalType": "address",
          "name": "",
          "type": "address"
        }
      ],
      "stateMutability": "view",
      "type": "function"
    },
    {
      "inputs": [],
      "name": "registry",
      "outputs": [
        {
          "internalType": "contract VestingFactory",
          "name": "",
          "type": "address"
        }
      ],
      "stateMutability": "view",
      "type": "function"
    },
    {
      "inputs": [
        {
          "internalType": "address",
          "name": "token",
          "type": "address"
        }
      ],
      "name": "release",
      "outputs": [],
      "stateMutability": "nonpayable",
      "type": "function"
    },
    {
      "inputs": [],
      "name": "release",
      "outputs": [],
      "stateMutability": "nonpayable",
      "type": "function"
    },
    {
      "inputs": [],
      "name": "releaseable",
      "outputs": [
        {
          "internalType": "uint256",
          "name": "",
          "type": "uint256"
        }
      ],
      "stateMutability": "view",
      "type": "function"
    },
    {
      "inputs": [
        {
          "internalType": "address",
          "name": "token",
          "type": "address"
        }
      ],
      "name": "releaseable",
      "outputs": [
        {
          "internalType": "uint256",
          "name": "",
          "type": "uint256"
        }
      ],
      "stateMutability": "view",
      "type": "function"
    },
    {
      "inputs": [],
      "name": "released",
      "outputs": [
        {
          "internalType": "uint256",
          "name": "",
          "type": "uint256"
        }
      ],
      "stateMutability": "view",
      "type": "function"
    },
    {
      "inputs": [
        {
          "internalType": "address",
          "name": "token",
          "type": "address"
        }
      ],
      "name": "released",
      "outputs": [
        {
          "internalType": "uint256",
          "name": "",
          "type": "uint256"
        }
      ],
      "stateMutability": "view",
      "type": "function"
    },
    {
      "inputs": [],
      "name": "start",
      "outputs": [
        {
          "internalType": "uint256",
          "name": "",
          "type": "uint256"
        }
      ],
      "stateMutability": "view",
      "type": "function"
    },
    {
      "inputs": [
        {
          "internalType": "address",
          "name": "newOwner",
          "type": "address"
        }
      ],
      "name": "transferOwnership",
      "outputs": [],
      "stateMutability": "nonpayable",
      "type": "function"
    },
    {
      "inputs": [
        {
          "internalType": "uint64",
          "name": "timestamp",
          "type": "uint64"
        }
      ],
      "name": "vestedAmount",
      "outputs": [
        {
          "internalType": "uint256",
          "name": "",
          "type": "uint256"
        }
      ],
      "stateMutability": "view",
      "type": "function"
    },
    {
      "inputs": [
        {
          "internalType": "address",
          "name": "token",
          "type": "address"
        },
        {
          "internalType": "uint64",
          "name": "timestamp",
          "type": "uint64"
        }
      ],
      "name": "vestedAmount",
      "outputs": [
        {
          "internalType": "uint256",
          "name": "",
          "type": "uint256"
        }
      ],
      "stateMutability": "view",
      "type": "function"
    },
    {
      "stateMutability": "payable",
      "type": "receive"
    }
  ],
  "bytecode": "0x60a06040523373ffffffffffffffffffffffffffffffffffffffff1660809073ffffffffffffffffffffffffffffffffffffffff168152503480156200004457600080fd5b5060008060019054906101000a900460ff16159050808015620000775750600160008054906101000a900460ff1660ff16105b80620000b357506200009430620001ca60201b620013921760201c565b158015620000b25750600160008054906101000a900460ff1660ff16145b5b620000f5576040517f08c379a0000000000000000000000000000000000000000000000000000000008152600401620000ec9062000277565b60405180910390fd5b60016000806101000a81548160ff021916908360ff160217905550801562000133576001600060016101000a81548160ff0219169083151502179055505b620001677fb722de2e920ede937f7811f167fe653233c0d8324f30f4f989b7c33557fad31660001b620001ed60201b60201c565b8015620001c35760008060016101000a81548160ff0219169083151502179055507f7f26b83ff96e1f2b6a682f133852f6798a09c465da95921460cefb38474024986001604051620001ba9190620002f3565b60405180910390a15b5062000310565b6000808273ffffffffffffffffffffffffffffffffffffffff163b119050919050565b50565b600082825260208201905092915050565b7f496e697469616c697a61626c653a20636f6e747261637420697320616c72656160008201527f647920696e697469616c697a6564000000000000000000000000000000000000602082015250565b60006200025f602e83620001f0565b91506200026c8262000201565b604082019050919050565b60006020820190508181036000830152620002928162000250565b9050919050565b6000819050919050565b600060ff82169050919050565b6000819050919050565b6000620002db620002d5620002cf8462000299565b620002b0565b620002a3565b9050919050565b620002ed81620002ba565b82525050565b60006020820190506200030a6000830184620002e2565b92915050565b608051612c736200033a6000396000818161091b01528181610d5801526112e50152612c736000f3fe60806040526004361061010d5760003560e01c80638ab6568611610095578063ac9650d811610064578063ac9650d814610364578063b01b3450146103a1578063be9a6555146103cc578063c9ac9eb3146103f7578063f2fde38b1461043457610114565b80638ab65686146102a85780638da5cb5b146102d157806396132521146102fc5780639852595c1461032757610114565b806319165587116100dc57806319165587146101d557806338af3eed146101fe5780637b10399914610229578063810ec23b1461025457806386d1a69f1461029157610114565b80630a17b06b146101195780630b398085146101565780630fb5a6b41461017f57806313d033c0146101aa57610114565b3661011457005b600080fd5b34801561012557600080fd5b50610140600480360381019061013b9190611c7a565b61045d565b60405161014d9190611cc0565b60405180910390f35b34801561016257600080fd5b5061017d60048036038101906101789190611cdb565b610482565b005b34801561018b57600080fd5b506101946106d7565b6040516101a19190611cc0565b60405180910390f35b3480156101b657600080fd5b506101bf6106ff565b6040516101cc9190611cc0565b60405180910390f35b3480156101e157600080fd5b506101fc60048036038101906101f79190611d8c565b6107ab565b005b34801561020a57600080fd5b50610213610886565b6040516102209190611dc8565b60405180910390f35b34801561023557600080fd5b5061023e610919565b60405161024b9190611e42565b60405180910390f35b34801561026057600080fd5b5061027b60048036038101906102769190611e5d565b61093d565b6040516102889190611cc0565b60405180910390f35b34801561029d57600080fd5b506102a66109dd565b005b3480156102b457600080fd5b506102cf60048036038101906102ca9190611edb565b610a60565b005b3480156102dd57600080fd5b506102e6610cd0565b6040516102f39190611dc8565b60405180910390f35b34801561030857600080fd5b50610311610e0b565b60405161031e9190611cc0565b60405180910390f35b34801561033357600080fd5b5061034e60048036038101906103499190611d8c565b610e15565b60405161035b9190611cc0565b60405180910390f35b34801561037057600080fd5b5061038b60048036038101906103869190611f80565b610e5e565b604051610398919061211f565b60405180910390f35b3480156103ad57600080fd5b506103b6610f6a565b6040516103c39190611cc0565b60405180910390f35b3480156103d857600080fd5b506103e1611010565b6040516103ee9190611cc0565b60405180910390f35b34801561040357600080fd5b5061041e60048036038101906104199190611d8c565b611038565b60405161042b9190611cc0565b60405180910390f35b34801561044057600080fd5b5061045b60048036038101906104569190611d8c565b6110e2565b005b600061047b61046a610e0b565b476104759190612170565b836113b5565b9050919050565b60008060019054906101000a900460ff161590508080156104b35750600160008054906101000a900460ff1660ff16105b806104e057506104c230611392565b1580156104df5750600160008054906101000a900460ff1660ff16145b5b61051f576040517f08c379a000000000000000000000000000000000000000000000000000000000815260040161051690612227565b60405180910390fd5b60016000806101000a81548160ff021916908360ff160217905550801561055c576001600060016101000a81548160ff0219169083151502179055505b6105887fb727094455aa1786791982bb9280747ef6e872924c97cd216fa1ec4cecf3aa6360001b611486565b6105b47f2ab36fc5b32137d52d781f2e9a45da3a86cbf9f3d9735e43ef6769f8bf1d478360001b611486565b6105e07f83ad25f51458f735747f0cacd2b0e021a0802d7304b8dbf381eabffdef25464960001b611486565b6105ec60018584611489565b6106187f2cf96f10887bd486d6e56cd300e102ad3bb1c5e75c0246547dffd107b82c773f60001b611486565b6106447f032b952903f1887c8829032c3140c2807a372c05a22e16befe9f22eaba2c8cf960001b611486565b82846106509190612247565b606760006101000a81548167ffffffffffffffff021916908367ffffffffffffffff16021790555080156106d15760008060016101000a81548160ff0219169083151502179055507f7f26b83ff96e1f2b6a682f133852f6798a09c465da95921460cefb384740249860016040516106c891906122cb565b60405180910390a15b50505050565b6000603660009054906101000a900467ffffffffffffffff1667ffffffffffffffff16905090565b600061072d7f4d87ac5a63336940a20cb40657d9da88a6b013d7c623c4ac0c54f2e2ee9bc21c60001b611486565b6107597f4fa293d42f46557e536445d63094a4e5cbec4ec4f8aea564147946c4825331b360001b611486565b6107857f3db5d26c6bfef1d2b237f43e00ef8b6a5a7837cd753bd08b5e44bc1305405c0760001b611486565b606760009054906101000a900467ffffffffffffffff1667ffffffffffffffff16905090565b60006107b682610e15565b6107c0834261093d565b6107ca91906122e6565b905080603460008473ffffffffffffffffffffffffffffffffffffffff1673ffffffffffffffffffffffffffffffffffffffff168152602001908152602001600020600082825461081b9190612170565b925050819055508173ffffffffffffffffffffffffffffffffffffffff167fc0e523490dd523c33b1878c9eb14ff46991e3f5b2cd33710918618f2a39cba1b826040516108689190611cc0565b60405180910390a26108828261087c610886565b836114e8565b5050565b60006108b47f7192fec79932c1130b5275258b542e6af04875a2913582d39607a2a78f79536760001b611486565b6108e07f6cbc1bec7e4d010c259de7c9086159c41341c2f83fa0d2d296510feed417a6ee60001b611486565b61090c7fe1544481e8ebe81ae8d68d9a9e4dc85cadb05bb4c27af45e88ed0b46d8de66f860001b611486565b610914610cd0565b905090565b7f000000000000000000000000000000000000000000000000000000000000000081565b60006109d561094b84610e15565b8473ffffffffffffffffffffffffffffffffffffffff166370a08231306040518263ffffffff1660e01b81526004016109849190611dc8565b602060405180830381865afa1580156109a1573d6000803e3d6000fd5b505050506040513d601f19601f820116820180604052508101906109c59190612346565b6109cf9190612170565b836113b5565b905092915050565b60006109e7610e0b565b6109f04261045d565b6109fa91906122e6565b90508060336000828254610a0e9190612170565b925050819055507fda9d4e5f101b8b9b1c5b76d0c5a9f7923571acfc02376aa076b75a8c080c956b81604051610a449190611cc0565b60405180910390a1610a5d610a57610886565b8261156e565b50565b610a8c7f63237cb0416177459831b544e39036c6d6d7f85c627f66c1bcdb6318e50efc7260001b611486565b610ab87f95fac327b8f89915f398346091967579bfdfcb462ee42cf93f5949edcc9d318260001b611486565b610ae47f0142c8290c08b63d588aaf61852f1877f1ec7230d88c600830e1dda115c8d1b260001b611486565b610b107fc7757e8bafca6a6e352ad1f2d348a30566091d3aaffee24cc82670732a68d3ae60001b611486565b3373ffffffffffffffffffffffffffffffffffffffff16610b2f610cd0565b73ffffffffffffffffffffffffffffffffffffffff1614610b85576040517f08c379a0000000000000000000000000000000000000000000000000000000008152600401610b7c906123e5565b60405180910390fd5b610bb17f2e802f8ee820bb3def20c24ab927e5f4226d69942045ee8057e576d33987579b60001b611486565b610bdd7f649e18233600ef3224e3f8e631da080f3ca4b63e8660073205d2ee1311ad899860001b611486565b610c097fb8ced79b63349fcef3f2f224daba547322be65d4a0aa39079d86cc044d55bb1360001b611486565b610c357fd6874c993b1f72c1b89f0825c43215552f69fe39992161b579e5a4d98e987d4860001b611486565b610c617f77e5a5ffb7731029e24e75a05f947a0aeca5fd87e50c13e75875ba8aa010a32060001b611486565b8173ffffffffffffffffffffffffffffffffffffffff16635c19a95c826040518263ffffffff1660e01b8152600401610c9a9190611dc8565b600060405180830381600087803b158015610cb457600080fd5b505af1158015610cc8573d6000803e3d6000fd5b505050505050565b6000610cfe7fc47f0438de13a2bca320939bc0328c554d283795e993faa4c7a0d3e435ddc3f560001b611486565b610d2a7fa49c93e9d2139368730623df2a61a9a795ba57dcbcf1c78cec2f9e2201fb38f660001b611486565b610d567f0bec16edfc021e8a2fa3b0cd8d98609c0c015a67af1bcf00d66d2232a2856d2e60001b611486565b7f000000000000000000000000000000000000000000000000000000000000000073ffffffffffffffffffffffffffffffffffffffff16636352211e3073ffffffffffffffffffffffffffffffffffffffff166040518263ffffffff1660e01b8152600401610dc59190611cc0565b602060405180830381865afa158015610de2573d6000803e3d6000fd5b505050506040513d601f19601f82011682018060405250810190610e06919061241a565b905090565b6000603354905090565b6000603460008373ffffffffffffffffffffffffffffffffffffffff1673ffffffffffffffffffffffffffffffffffffffff168152602001908152602001600020549050919050565b60608282905067ffffffffffffffff811115610e7d57610e7c612447565b5b604051908082528060200260200182016040528015610eb057816020015b6060815260200190600190039081610e9b5790505b50905060005b83839050811015610f6357610f3230858584818110610ed857610ed7612476565b5b9050602002810190610eea91906124b4565b8080601f016020809104026020016040519081016040528093929190818152602001838380828437600081840152601f19601f82011690508083019250505050505050611662565b828281518110610f4557610f44612476565b5b60200260200101819052508080610f5b90612517565b915050610eb6565b5092915050565b6000610f987fba9987a81208b9c8494c4b7a000e6aefbdee1b3d0ce04a91351dc973f6e2878a60001b611486565b610fc47f2bf14ff58d761c1fe12f1898c6721c7235715f2903c0a2218a5f6318a0f67e8660001b611486565b610ff07f4131910982a73d79a21ed4fc8972db8ea5a935c2bc608b480c847fab92b2586260001b611486565b610ff8610e0b565b6110014261045d565b61100b91906122e6565b905090565b6000603560149054906101000a900467ffffffffffffffff1667ffffffffffffffff16905090565b60006110667f219bf7b1d2c504b80460fa8efde14cf8c000268cbf444328586f54028591ff8160001b611486565b6110927fb23f42ee3cbf208cf924a3d68b32e8104ef9d2b1ff9b426b518cbc4d006f052e60001b611486565b6110be7f6d28a2b6bb2913a3eafc5af802fe80c71e2ac79e7b92e924005e60faaa97c95d60001b611486565b6110c782610e15565b6110d1834261093d565b6110db91906122e6565b9050919050565b61110e7f63237cb0416177459831b544e39036c6d6d7f85c627f66c1bcdb6318e50efc7260001b611486565b61113a7f95fac327b8f89915f398346091967579bfdfcb462ee42cf93f5949edcc9d318260001b611486565b6111667f0142c8290c08b63d588aaf61852f1877f1ec7230d88c600830e1dda115c8d1b260001b611486565b6111927fc7757e8bafca6a6e352ad1f2d348a30566091d3aaffee24cc82670732a68d3ae60001b611486565b3373ffffffffffffffffffffffffffffffffffffffff166111b1610cd0565b73ffffffffffffffffffffffffffffffffffffffff1614611207576040517f08c379a00000000000000000000000000000000000000000000000000000000081526004016111fe906123e5565b60405180910390fd5b6112337f2e802f8ee820bb3def20c24ab927e5f4226d69942045ee8057e576d33987579b60001b611486565b61125f7f649e18233600ef3224e3f8e631da080f3ca4b63e8660073205d2ee1311ad899860001b611486565b61128b7f6dd6e28af5dce213117f29da7d7b63c21c9c634b36b02f5f68f70a44cbd1c7da60001b611486565b6112b77f09a9bb93198fca7fbfe0f2919538574590996da30006f3d9b7761e49cae2d68360001b611486565b6112e37f82ed0bca4b7772c4c3e54d6d705685a106fac4e92aa03e2f58b7b7e728d07d6660001b611486565b7f000000000000000000000000000000000000000000000000000000000000000073ffffffffffffffffffffffffffffffffffffffff166323b872dd611327610cd0565b833073ffffffffffffffffffffffffffffffffffffffff166040518463ffffffff1660e01b815260040161135d9392919061255f565b600060405180830381600087803b15801561137757600080fd5b505af115801561138b573d6000803e3d6000fd5b5050505050565b6000808273ffffffffffffffffffffffffffffffffffffffff163b119050919050565b60006113e37f7e80472b4bf806268750418607c8c175ead663bd8aa582f489bec99df871a79860001b611486565b61140f7f11f4ebd24adb228c38b3d37ff524b1cab8e40cebcb84a1cbb58401f014edfa7c60001b611486565b61143b7ff2652bc17afbd8e51831e03aaf3b24e98f6a1eb307d99e3439342c74bd1c71d960001b611486565b606760009054906101000a900467ffffffffffffffff1667ffffffffffffffff168267ffffffffffffffff161061147b57611476838361168f565b61147e565b60005b905092915050565b50565b600060019054906101000a900460ff166114d8576040517f08c379a00000000000000000000000000000000000000000000000000000000081526004016114cf90612608565b60405180910390fd5b6114e3838383611729565b505050565b6115698363a9059cbb60e01b8484604051602401611507929190612628565b604051602081830303815290604052907bffffffffffffffffffffffffffffffffffffffffffffffffffffffff19166020820180517bffffffffffffffffffffffffffffffffffffffffffffffffffffffff838183161783525050505061187f565b505050565b804710156115b1576040517f08c379a00000000000000000000000000000000000000000000000000000000081526004016115a89061269d565b60405180910390fd5b60008273ffffffffffffffffffffffffffffffffffffffff16826040516115d7906126ee565b60006040518083038185875af1925050503d8060008114611614576040519150601f19603f3d011682016040523d82523d6000602084013e611619565b606091505b505090508061165d576040517f08c379a000000000000000000000000000000000000000000000000000000000815260040161165490612775565b60405180910390fd5b505050565b60606116878383604051806060016040528060278152602001612c1760279139611946565b905092915050565b6000611699611010565b8267ffffffffffffffff1610156116b35760009050611723565b6116bb6106d7565b6116c3611010565b6116cd9190612170565b8267ffffffffffffffff1611156116e657829050611723565b6116ee6106d7565b6116f6611010565b8367ffffffffffffffff1661170b91906122e6565b846117169190612795565b611720919061281e565b90505b92915050565b600060019054906101000a900460ff16611778576040517f08c379a000000000000000000000000000000000000000000000000000000000815260040161176f90612608565b60405180910390fd5b600073ffffffffffffffffffffffffffffffffffffffff168373ffffffffffffffffffffffffffffffffffffffff16036117e7576040517f08c379a00000000000000000000000000000000000000000000000000000000081526004016117de906128c1565b60405180910390fd5b82603560006101000a81548173ffffffffffffffffffffffffffffffffffffffff021916908373ffffffffffffffffffffffffffffffffffffffff16021790555081603560146101000a81548167ffffffffffffffff021916908367ffffffffffffffff16021790555080603660006101000a81548167ffffffffffffffff021916908367ffffffffffffffff160217905550505050565b60006118e1826040518060400160405280602081526020017f5361666545524332303a206c6f772d6c6576656c2063616c6c206661696c65648152508573ffffffffffffffffffffffffffffffffffffffff16611a139092919063ffffffff16565b905060008151111561194157808060200190518101906119019190612919565b611940576040517f08c379a0000000000000000000000000000000000000000000000000000000008152600401611937906129b8565b60405180910390fd5b5b505050565b606061195184611a2b565b611990576040517f08c379a000000000000000000000000000000000000000000000000000000000815260040161198790612a4a565b60405180910390fd5b6000808573ffffffffffffffffffffffffffffffffffffffff16856040516119b89190612a9b565b600060405180830381855af49150503d80600081146119f3576040519150601f19603f3d011682016040523d82523d6000602084013e6119f8565b606091505b5091509150611a08828286611a4e565b925050509392505050565b6060611a228484600085611ab5565b90509392505050565b6000808273ffffffffffffffffffffffffffffffffffffffff163b119050919050565b60608315611a5e57829050611aae565b600083511115611a715782518084602001fd5b816040517f08c379a0000000000000000000000000000000000000000000000000000000008152600401611aa59190612af6565b60405180910390fd5b9392505050565b606082471015611afa576040517f08c379a0000000000000000000000000000000000000000000000000000000008152600401611af190612b8a565b60405180910390fd5b611b0385611392565b611b42576040517f08c379a0000000000000000000000000000000000000000000000000000000008152600401611b3990612bf6565b60405180910390fd5b6000808673ffffffffffffffffffffffffffffffffffffffff168587604051611b6b9190612a9b565b60006040518083038185875af1925050503d8060008114611ba8576040519150601f19603f3d011682016040523d82523d6000602084013e611bad565b606091505b5091509150611bbd828286611bc9565b92505050949350505050565b60608315611bd957829050611c29565b600083511115611bec5782518084602001fd5b816040517f08c379a0000000000000000000000000000000000000000000000000000000008152600401611c209190612af6565b60405180910390fd5b9392505050565b600080fd5b600080fd5b600067ffffffffffffffff82169050919050565b611c5781611c3a565b8114611c6257600080fd5b50565b600081359050611c7481611c4e565b92915050565b600060208284031215611c9057611c8f611c30565b5b6000611c9e84828501611c65565b91505092915050565b6000819050919050565b611cba81611ca7565b82525050565b6000602082019050611cd56000830184611cb1565b92915050565b600080600060608486031215611cf457611cf3611c30565b5b6000611d0286828701611c65565b9350506020611d1386828701611c65565b9250506040611d2486828701611c65565b9150509250925092565b600073ffffffffffffffffffffffffffffffffffffffff82169050919050565b6000611d5982611d2e565b9050919050565b611d6981611d4e565b8114611d7457600080fd5b50565b600081359050611d8681611d60565b92915050565b600060208284031215611da257611da1611c30565b5b6000611db084828501611d77565b91505092915050565b611dc281611d4e565b82525050565b6000602082019050611ddd6000830184611db9565b92915050565b6000819050919050565b6000611e08611e03611dfe84611d2e565b611de3565b611d2e565b9050919050565b6000611e1a82611ded565b9050919050565b6000611e2c82611e0f565b9050919050565b611e3c81611e21565b82525050565b6000602082019050611e576000830184611e33565b92915050565b60008060408385031215611e7457611e73611c30565b5b6000611e8285828601611d77565b9250506020611e9385828601611c65565b9150509250929050565b6000611ea882611d4e565b9050919050565b611eb881611e9d565b8114611ec357600080fd5b50565b600081359050611ed581611eaf565b92915050565b60008060408385031215611ef257611ef1611c30565b5b6000611f0085828601611ec6565b9250506020611f1185828601611d77565b9150509250929050565b600080fd5b600080fd5b600080fd5b60008083601f840112611f4057611f3f611f1b565b5b8235905067ffffffffffffffff811115611f5d57611f5c611f20565b5b602083019150836020820283011115611f7957611f78611f25565b5b9250929050565b60008060208385031215611f9757611f96611c30565b5b600083013567ffffffffffffffff811115611fb557611fb4611c35565b5b611fc185828601611f2a565b92509250509250929050565b600081519050919050565b600082825260208201905092915050565b6000819050602082019050919050565b600081519050919050565b600082825260208201905092915050565b60005b83811015612033578082015181840152602081019050612018565b60008484015250505050565b6000601f19601f8301169050919050565b600061205b82611ff9565b6120658185612004565b9350612075818560208601612015565b61207e8161203f565b840191505092915050565b60006120958383612050565b905092915050565b6000602082019050919050565b60006120b582611fcd565b6120bf8185611fd8565b9350836020820285016120d185611fe9565b8060005b8581101561210d57848403895281516120ee8582612089565b94506120f98361209d565b925060208a019950506001810190506120d5565b50829750879550505050505092915050565b6000602082019050818103600083015261213981846120aa565b905092915050565b7f4e487b7100000000000000000000000000000000000000000000000000000000600052601160045260246000fd5b600061217b82611ca7565b915061218683611ca7565b925082820190508082111561219e5761219d612141565b5b92915050565b600082825260208201905092915050565b7f496e697469616c697a61626c653a20636f6e747261637420697320616c72656160008201527f647920696e697469616c697a6564000000000000000000000000000000000000602082015250565b6000612211602e836121a4565b915061221c826121b5565b604082019050919050565b6000602082019050818103600083015261224081612204565b9050919050565b600061225282611c3a565b915061225d83611c3a565b9250828201905067ffffffffffffffff81111561227d5761227c612141565b5b92915050565b6000819050919050565b600060ff82169050919050565b60006122b56122b06122ab84612283565b611de3565b61228d565b9050919050565b6122c58161229a565b82525050565b60006020820190506122e060008301846122bc565b92915050565b60006122f182611ca7565b91506122fc83611ca7565b925082820390508181111561231457612313612141565b5b92915050565b61232381611ca7565b811461232e57600080fd5b50565b6000815190506123408161231a565b92915050565b60006020828403121561235c5761235b611c30565b5b600061236a84828501612331565b91505092915050565b7f52656769737472794f776e61626c653a2063616c6c6572206973206e6f74207460008201527f6865206f776e6572000000000000000000000000000000000000000000000000602082015250565b60006123cf6028836121a4565b91506123da82612373565b604082019050919050565b600060208201905081810360008301526123fe816123c2565b9050919050565b60008151905061241481611d60565b92915050565b6000602082840312156124305761242f611c30565b5b600061243e84828501612405565b91505092915050565b7f4e487b7100000000000000000000000000000000000000000000000000000000600052604160045260246000fd5b7f4e487b7100000000000000000000000000000000000000000000000000000000600052603260045260246000fd5b600080fd5b600080fd5b600080fd5b600080833560016020038436030381126124d1576124d06124a5565b5b80840192508235915067ffffffffffffffff8211156124f3576124f26124aa565b5b60208301925060018202360383131561250f5761250e6124af565b5b509250929050565b600061252282611ca7565b91507fffffffffffffffffffffffffffffffffffffffffffffffffffffffffffffffff820361255457612553612141565b5b600182019050919050565b60006060820190506125746000830186611db9565b6125816020830185611db9565b61258e6040830184611cb1565b949350505050565b7f496e697469616c697a61626c653a20636f6e7472616374206973206e6f74206960008201527f6e697469616c697a696e67000000000000000000000000000000000000000000602082015250565b60006125f2602b836121a4565b91506125fd82612596565b604082019050919050565b60006020820190508181036000830152612621816125e5565b9050919050565b600060408201905061263d6000830185611db9565b61264a6020830184611cb1565b9392505050565b7f416464726573733a20696e73756666696369656e742062616c616e6365000000600082015250565b6000612687601d836121a4565b915061269282612651565b602082019050919050565b600060208201905081810360008301526126b68161267a565b9050919050565b600081905092915050565b50565b60006126d86000836126bd565b91506126e3826126c8565b600082019050919050565b60006126f9826126cb565b9150819050919050565b7f416464726573733a20756e61626c6520746f2073656e642076616c75652c207260008201527f6563697069656e74206d61792068617665207265766572746564000000000000602082015250565b600061275f603a836121a4565b915061276a82612703565b604082019050919050565b6000602082019050818103600083015261278e81612752565b9050919050565b60006127a082611ca7565b91506127ab83611ca7565b9250817fffffffffffffffffffffffffffffffffffffffffffffffffffffffffffffffff04831182151516156127e4576127e3612141565b5b828202905092915050565b7f4e487b7100000000000000000000000000000000000000000000000000000000600052601260045260246000fd5b600061282982611ca7565b915061283483611ca7565b925082612844576128436127ef565b5b828204905092915050565b7f56657374696e6757616c6c65743a2062656e6566696369617279206973207a6560008201527f726f206164647265737300000000000000000000000000000000000000000000602082015250565b60006128ab602a836121a4565b91506128b68261284f565b604082019050919050565b600060208201905081810360008301526128da8161289e565b9050919050565b60008115159050919050565b6128f6816128e1565b811461290157600080fd5b50565b600081519050612913816128ed565b92915050565b60006020828403121561292f5761292e611c30565b5b600061293d84828501612904565b91505092915050565b7f5361666545524332303a204552433230206f7065726174696f6e20646964206e60008201527f6f74207375636365656400000000000000000000000000000000000000000000602082015250565b60006129a2602a836121a4565b91506129ad82612946565b604082019050919050565b600060208201905081810360008301526129d181612995565b9050919050565b7f416464726573733a2064656c65676174652063616c6c20746f206e6f6e2d636f60008201527f6e74726163740000000000000000000000000000000000000000000000000000602082015250565b6000612a346026836121a4565b9150612a3f826129d8565b604082019050919050565b60006020820190508181036000830152612a6381612a27565b9050919050565b6000612a7582611ff9565b612a7f81856126bd565b9350612a8f818560208601612015565b80840191505092915050565b6000612aa78284612a6a565b915081905092915050565b600081519050919050565b6000612ac882612ab2565b612ad281856121a4565b9350612ae2818560208601612015565b612aeb8161203f565b840191505092915050565b60006020820190508181036000830152612b108184612abd565b905092915050565b7f416464726573733a20696e73756666696369656e742062616c616e636520666f60008201527f722063616c6c0000000000000000000000000000000000000000000000000000602082015250565b6000612b746026836121a4565b9150612b7f82612b18565b604082019050919050565b60006020820190508181036000830152612ba381612b67565b9050919050565b7f416464726573733a2063616c6c20746f206e6f6e2d636f6e7472616374000000600082015250565b6000612be0601d836121a4565b9150612beb82612baa565b602082019050919050565b60006020820190508181036000830152612c0f81612bd3565b905091905056fe416464726573733a206c6f772d6c6576656c2064656c65676174652063616c6c206661696c6564a26469706673582212204e12d0c6c051e9dd21dfaaaf77d64d257e0e9c6268a4a39c5bb8a17c1432e09464736f6c63430008100033",
  "linkReferences": {},
  "deployedLinkReferences": {}
}